:020000040804EE
:10000000E0560020F5030408B92D04084F29040820
:10001000B52D0408150D0408E13A0408000000009D
:10002000000000000000000000000000C5020408FD
:10003000330E0408000000007D030408E1030408F7
:100040000F0404080F0404080F0404080F04040834
:100050000F0404080F0404080F0404080F04040824
:100060000F0404080F0404080F0404080F04040814
:100070000F0404080F0404080F0404080F04040804
:100080000F0404080F0404080F0404080F040408F4
:100090000F0404080F0404080F0404080F040408E4
:1000A0000F0404080F0404080F0404080F040408D4
:1000B0000F0404080F0404080F0404080F040408C4
:1000C0000F0404080F0404080F0404080F040408B4
:1000D0000F040408E93804080F0404080F04040896
:1000E0000F0404080F0404080F0404080F04040894
:1000F0000F0404080F0404080F0404080F04040884
:100100000F0404080F0404080F0404080F04040873
:100110000F040408193404080F0404080F04040829
:10012000190D04080F0404080F0404080F04040840
:100130000F0404080F0404080F0404080F04040843
:100140000F0404080F0404080F0404080F04040833
:100150000F0404080F0404080F0404080F04040823
:100160000F0404080F0404080F0404080F04040813
:100170000F0404080F0404080F0404080000000022
:100180000F0404080F04040800F002F800F044F81B
:100190000AA090E8000C82448344AAF10107DA45E2
:1001A00001D100F039F8AFF2090EBAE80F0013F0F0
:1001B000010F18BFFB1A43F001031847FC7E000033
:1001C0001C7F0000103A24BF78C878C1FAD85207C3
:1001D00024BF30C830C144BF04680C6070470000C1
:1001E0000023002400250026103A28BF78C1FBD840
:1001F000520728BF30C148BF0B607047642900F028
:10020000D181782900F00A82002070471FB507F0DD
:1002100099FA1FBD10B510BD00F05AFC1146FFF74A
:10022000F5FF0FB400F00CF80FBC04F07FFE00F0F7
:10023000BDFA03B4FFF7EEFF03BC00F043FC00007F
:1002400004B005F081F80448002105F0D1F805F06C
:100250008DF800F0ABFA0000487E040880F30988AE
:100260007047EFF309807047684680F309880448B7
:100270000078C00714BF0220032080F31488704761
:10028000087E0408DFF818C0EFF305831B0618BFCB
:100290006047EFF31483DB0708BF604700DF704758
:1002A000D9650408DFF818C0EFF305831B0618BFF3
:1002B0006047EFF31483DB0708BF604700DF704738
:1002C000BD670408EFF30980816911F8021CE1BBE6
:1002D00090E80F1010B5E047BDE81040EFF3098C2F
:1002E0008CE80700214B93E80600914208BF704755
:1002F00041B91EF0100F16D11D49086820F0010009
:10030000086010E01EF0100F06BF2CED108A0120CF
:10031000002081F825002CE9F00FC1F828C00CB4AA
:1003200006F0F6FD0CBC1A60D2F828C0BCE8F00F4D
:1003300092F8250000280EBF6FF0020E6FF0120E2B
:10034000BCEC108A8CF30988704710B5094A126812
:10035000914209D8084C54F8214090E80F10A0476A
:10036000EFF3098C8CE80F0010BD00008000002026
:1003700034EF00E01C0B04081C0B040810B506F059
:100380008BFCBDE81040154B93E80600914208BF76
:100390007047EFF3098C1EF0100F06BF2CED108A8A
:1003A0000120002081F825002CE9F00FC1F828C0B9
:1003B0000CB406F0ADFD0CBC1A60D2F828C0BCE845
:1003C000F00F92F8250000280EBF6FF0020E6FF0BC
:1003D000120EBCEC108A8CF3098870478000002054
:1003E00010B506F05DFECCE710B505F067F806F035
:1003F00057FEC6E70948804709480047FEE7FEE781
:10040000FEE7FEE7FEE7FEE7FEE7FEE7FEE7FEE7C4
:1004100004480549054A064B70470000F5300408BA
:1004200089010408E0500020E0560020E05200203E
:10043000E0520020004870477C50002053EA020C34
:1004400000F069802DE9F04B4FF00006002B1FBF34
:10045000B3FA83F503FA05F424FA05F65E4012BFF9
:100460001643B2FA82F502FA05F4C5F120051EBF63
:1004700022FA05FC44EA0C04203556EA044C4FEA03
:10048000144418BF641C4FF000084FF0000990425C
:1004900071EB030C39D3002919BFB1FA81F701FAC6
:1004A00007F6B0FA80F700FA07F6C7F120071EBF7B
:1004B00020FA07FC46EA0C062037B6FBF4FCA7EB53
:1004C0000507103F07F01F0BCBF120060CFA0BFBC2
:1004D0002CFA06F644BFB3460026202FA4BF5E4682
:1004E0004FF0000B5BEA060C08BF4FF0010B19EB55
:1004F0000B09ABFB027C48EB0608C01B06FB02CCD9
:100500000BFB03CC71EB0C01C1E70B4602464146E5
:100510004846BDE8F08B13B54FF000004FF00001E6
:10052000AFF30080BDE81C40704700000FB41CB55D
:10053000074B06AA7B4469460090059800F02FFA05
:100540000020694600F03EFA1CBC5DF814FB000078
:100550008D04000070B5044685690068C10601D5A8
:10056000302600E02026C00707D070BDD4E9012165
:1005700030469047206A401C20626D1EF6D570BD43
:1005800070B5044685690078C00707D170BDD4E90D
:10059000012120209047206A401C20626D1EF6D564
:1005A00070BD00002DE9F041064600241068752951
:1005B000314616A510D0AFF30080002802DA404281
:1005C00013A507E031688A0701D512A502E04907A3
:1005D00004D511A5012401E0AFF3008000210A2217
:1005E00006F1240709E0B0FBF2FCB0FBF2F302FBDA
:1005F0001C00303078541846491C0028F3D123469B
:100600002A463046BDE8F04100F06BB9000000001A
:100610002D0000002B0000002000000070B50446F3
:100620000D4621461068AFF300802188090502D5E8
:100630000F4A7A4402E00E4A7A440E32002104F155
:10064000240305E000F00F060009965D5E54491C86
:100650000028F7D120780023000704D5702D02D0A0
:1006600009B1022311322046BDE8704000F039B9CB
:10067000427800002DE9F05F894604464FF0000AF9
:10068000DFF824B1FB44C0F820A02046E168884789
:1006900000287DD0252806D0D4E901219047206A82
:1006A000401C2062F1E700255F462046E16888474C
:1006B0002028064607DB312E05D2B81910F8200C89
:1006C00008B10543F1E7A80701D525F00405C4F8F2
:1006D0001CA00027C4F818A02A2E09D0304603F029
:1006E00040FA38B304EB8708303EC8F8186019E0C8
:1006F00059F8041B204604EB87029161E1688847A2
:10070000012F064618D1E069002820DA25F02005DF
:100710001DE0D8F8180000EB800006EB40003038F0
:10072000C8F818002046E1688847064603F019FA21
:100730000028EED1012F0AD02E2E08D12046E168E4
:1007400088477F1C0646022F45F02005C4DBA069C0
:10075000002803DA404245F00105A061E80701D016
:1007600025F01005A6B1A6F14100192802D82036BF
:1007700045F400654A463146204625604D46FFF760
:100780003DFD60B1012807D0ED1D25F0070000E018
:1007900007E000F1080978E705F1040975E730463C
:1007A0007AE7206ABDE8F09F1878000010B504468B
:1007B000AFF300802046BDE81040FFF73ABD10B50A
:1007C000431C02E010F8011B71B18107FAD14FF010
:1007D000013202C88C1A8C4314EAC211F9D0C01A33
:1007E0000A0603D0C01E10BDC01A10BD0A0401D0F5
:1007F000801E10BD0902FCD0401E10BD032A40F22D
:10080000308010F0030C00F0158011F8013BBCF1B2
:10081000020F624498BF11F801CB00F8013B38BFCA
:1008200011F8013BA2F1040298BF00F801CB38BFD8
:1008300000F8013B11F0030300F0C980083AC0F052
:10084000088051F8043B083A51F804CBA0E808109E
:10085000F5E7121D5CBF51F8043B40F8043BAFF3D1
:100860000080D20724BF11F8013B11F801CB48BF2B
:1008700011F8012B24BF00F8013B00F801CB48BF61
:1008800000F8012B704710B5044610F0030F08BFA5
:1008900011F0030F40F015804FF0013E121FC0F21F
:1008A0000E8051F8043BA3EB0E0C2CEA030C1CEA5F
:1008B000CE1C08BF40F8043BF0D0A1F1040102F1C6
:1008C0000402521E08DB11F8013B002B00F8013B2B
:1008D000F7D1114600F0ADF8204610BD70477047C3
:1008E00070472DE9F0470D4699469246044600F1BF
:1008F00024080168880604D5E06921F01001216010
:1009000000E00120A84201DD471B00E00027A169AB
:100910007A1902EB0900081AA0612078C00602D4F7
:100920002046FFF717FE002608E0D4E901211AF857
:1009300006009047206A401C761C20624E45F4DB7E
:100940002078C0060AD52046FFF704FE06E0D4E969
:10095000012130209047206A401C2062381EA7F1F8
:100960000107F4DC07E0D4E9012118F805009047FD
:10097000206A401C2062281EA5F10105F3DC2046F8
:10098000FFF7FEFD2078000602D50220BDE8F087C3
:100990000120FBE701694A1C02610878704700B535
:1009A0008FB0CDE901310021059105497944CDE9A8
:1009B000031011466846FFF75DFE0FB000BD000052
:1009C000E5FFFFFF0A6802F8010B0A60704710B5E7
:1009D000203AC0F00B80B1E81850203AA0E8185037
:1009E000B1E81850A0E81850BFF4F5AF5FEA027CF8
:1009F00024BFB1E81850A0E8185044BF18C918C067
:100A0000BDE810405FEA827C24BF51F8043B40F807
:100A1000043B08BF7047D20728BF31F8023B48BFEC
:100A200011F8012B28BF20F8023B48BF00F8012B2A
:100A300070474FF000020429C0F0128010F0030C40
:100A400000F01B80CCF1040CBCF1020F18BF00F8C1
:100A5000012BA8BF20F8022BA1EB0C0100F00DB870
:100A60005FEAC17C24BF00F8012B00F8012B48BFCE
:100A700000F8012B70474FF0000200B51346944672
:100A80009646203922BFA0E80C50A0E80C50B1F1E6
:100A90002001BFF4F7AF090728BFA0E80C5048BFFA
:100AA0000CC05DF804EB890028BF40F8042B08BF98
:100AB000704748BF20F8022B11F0804F18BF00F894
:100AC000012B704701491820ABBEFEE7260002004B
:100AD0007546FFF7AFFCAE4605006946534620F069
:100AE0000700854618B020B5FFF792FCBDE820400E
:100AF0004FF000064FF000074FF000084FF0000BDA
:100B000021F00701AC46ACE8C009ACE8C009ACE88C
:100B1000C009ACE8C0098D4670477047000000006E
:100B200070B50546AC6B206C00F0500050BB206CDB
:100B300040F4007020642068806800F04050E8B9FC
:100B4000A069D8B92068C06A00F4700020B120689C
:100B5000806800F4806088B92068406820F0200038
:100B600021684860206C20F480702064206C00F4C0
:100B7000805018B9206C40F001002064204600F03D
:100B80001FFA03E0A06BC16C2846884770BD70B5A2
:100B90000546AC6B40202064606C40F0040060644B
:100BA000204600F00FFA70BD70B50446A56B2846CC
:100BB00000F007FA70BD000054494A6822F4403240
:100BC0004A604A6843681A434A600268526822F4DD
:100BD000807203685A6002685368026943EA02221D
:100BE00003685A600268526822F0407203685A60D3
:100BF0000268526883681A4303685A600268926800
:100C000022F4006203689A6002689268C3681A431B
:100C100003689A603E4B826A9A4218D002689268D2
:100C200022F0706203689A6002689268836A1A43CD
:100C300003689A600268926822F0405203689A60E2
:100C400002689268C36A1A4303689A600BE00268FC
:100C5000926822F0706203689A600268926822F0DB
:100C6000405203689A600268926822F002020368A8
:100C70009A6002689368826943EA420203689A6054
:100C8000026AA2B10268526842F4006203685A60C4
:100C90000268526822F4604203685A60026853682E
:100CA000426A521E43EA423203685A6005E0026813
:100CB000526822F4006203685A600268D26A22F421
:100CC00070020368DA620268D36A828B521E43EABA
:100CD00002520368DA620268926822F400720368C2
:100CE0009A6002689368026B43EA422203689A6042
:100CF0000268926822F4806203689A6002689368CE
:100D0000426943EA822203689A60704700230140E7
:100D10000100000F00BFFEE710B5024800F042FAE4
:100D200010BD0000E80000200146087810381823A4
:100D3000B0FBF3F20848805CC865032A05D908684F
:100D40006FF30900001D886503E008686FF3090070
:100D50008865886D70470000587E040801460020B1
:100D60008A6A8B69CBB932B1012A0DD0022A03D02D
:100D7000032A10D10EE000BFCB6A03F08073B3F1F9
:100D8000807F00D1012007E0CB6AB3F1C07F00D1A2
:100D9000012001E000E000BF34E08B69B3F5005FA3
:100DA0001AD132B1012A07D0022A03D0032A11D165
:100DB0000AE000BF01200EE0CB6A03F08073B3F1BC
:100DC000807F00D1012006E0CB6AB3F1C07F00D163
:100DD000012000E000BF15E032B1012A05D0022A4F
:100DE00004D0032A0CD103E000BF00BF012008E0BB
:100DF000CB6A03F08073B3F1807F00D1012000E063
:100E000000BF00BF704730B50468246824F4802414
:100E100005682C60046863608468402C04D1046811
:100E2000A2600468E16003E00468A1600468E26015
:100E300030BD704738B502460020009000BF92F8E0
:100E40003C00012801D1022038BD012082F83C007D
:100E500000BF0868092816D91068C0680C780A3CD9
:100E600004EB44050724AC40A0431468E0600C7810
:100E70000A3C04EB44048868A0401468E4682043FA
:100E80001468E06013E0106800690C7804EB440516
:100E90000724AC40A043146820610C7804EB4404A0
:100EA0008868A04014682469204314682061486859
:100EB000072817D21068406B0C79641E04EB840578
:100EC0001F24AC40A04314686063088880B20C798A
:100ED000641E04EB8404A0401468646B204314680F
:100EE000606331E048680D2817D21068006B0C79F8
:100EF000E41F04EB84051F24AC40A0431468206366
:100F0000088880B20C79E41F04EB8404A0401468C4
:100F1000246B20431468206316E01068C06A0C79C3
:100F20000D3C04EB84051F24AC40A0431468E06230
:100F3000088880B20C790D3C04EB8404A04014684E
:100F4000E46A20431468E062194B1A4C1068A0420E
:100F500006D10868122803D1586840F48000586010
:100F6000144C1068A0421CD10868102802D00868F0
:100F7000112816D1586840F40000586008681028FD
:100F80000FD10D4800680D4CB0FBF4F000EB800071
:100F90004000009002E00098401E00900098002859
:100FA000F9D100BF002082F83C0000BF00BF4BE732
:100FB00000230140002001407400002040420F0047
:100FC000704770477047000070B5044600250CB9A3
:100FD000012070BD1549A06A884200D000BF206C76
:100FE00030B90020606484F83C00204600F020F80E
:100FF000206C00F0100088B9206C20F4885040F07C
:10100000020020642046FFF7D7FD00206064206CBA
:1010100020F0020040F00100206400E0012500BF44
:10102000002084F83C0000BF2846D2E70100000FF2
:1010300070470000F8B504460D46164600200090A3
:1010400000BF94F83C00012801D10220F8BD012026
:1010500084F83C0000BF2068806800F00100A0B95F
:101060002068806840F00100216888603C48006882
:101070003C49B0FBF1F000EB4000009002E000982A
:10108000401E009000980028F9D12068806800F088
:101090000100002862D0206C40F20161884340F4D6
:1010A000807020642068406800F4806028B1206C63
:1010B00020F4005040F480502064206C00F48050F4
:1010C00020B1606C20F00600606401E000206064E4
:1010D00000BF002084F83C0000BF234F2348A16BD1
:1010E000C8632348A16B08642248A16BC8646FF0F1
:1010F0002200216808602068406840F08060216814
:1011000048602068806840F48070216888602268A8
:1011100002F14C0133462A46A06B00F0D9F97868F9
:1011200000F01F0058B92068806800F0405028B9CE
:101130002068806840F08040216888600EE00E4999
:10114000206888420AD12068806800F0405028B9A1
:101150002068806840F0804021688860002075E742
:101160007400002040420F0000230140210B0408BE
:10117000A90B04088F0B040800200140014691F8D8
:101180003500022803D080204865012070470520E3
:1011900081F835000868006820F001000A681060D6
:1011A0000020F3E7F8B50446002000908C48006862
:1011B0004FF41651B0FBF1F7A56D2E6894F85C1052
:1011C00008208840304098B12068006800F0040092
:1011D00070B12068006820F004002168086094F86D
:1011E0005C1008208840A860606D40F001006065D8
:1011F00094F85C1001208840304068B12068406954
:1012000000F0800040B194F85C1001208840A86094
:10121000606D40F00200606594F85C100420884026
:10122000304068B12068006800F0020040B194F8D6
:101230005C1004208840A860606D40F00400606588
:1012400094F85C1010208840304078B32068006823
:1012500000F0080050B394F85C1010208840A8609B
:101260002068006800F4802080B12068006800F4E5
:10127000002028B9206CC8B12046216C884715E0B1
:10128000A06C98B12046A16C88470FE020680068E8
:1012900000F4807028B92068006820F008002168F8
:1012A0000860206C10B12046216C884794F85C10CF
:1012B000202088403040002865D02068006800F079
:1012C000100000285FD094F85C1020208840A860AF
:1012D00094F83500052828D12068006820F0160011
:1012E000216808602068406920F08000216848611A
:1012F000206C08B9A06C28B12068006820F00800B4
:101300002168086094F85C103F208840A86000BF06
:10131000002084F8340000BF012084F83500206DDF
:1013200010B12046216D8847F8BD2068006800F4A0
:10133000802080B12068006800F4002028B9606C2B
:1013400010B12046616C88471DE0E06BD8B12046A3
:10135000E16B884717E02068006800F4807068B986
:101360002068006820F010002168086000BF00209D
:1013700084F8340000BF012084F83500E06B10B120
:101380002046E16B8847606D38B3606D00F0010066
:10139000F0B1052084F835002068006820F00100D5
:1013A0002168086000BF0098401C0090B84200D936
:1013B00005E02068006800F001000028F3D100BFBC
:1013C00000BF002084F8340000BF012084F83500FD
:1013D000E06C10B12046E16C884700BFA4E7000034
:1013E000740000202DE9F0410446002500F0CEF9FC
:1013F000074614B90120BDE8F081606A00B100BF62
:1014000000BF002084F8340000BF022084F83500BB
:101410002068006820F00100216808600AE000F000
:10142000B5F9C01B052805D920206065032084F884
:101430003500E0E72068006800F001000028EED1E8
:101440002068056821480540D4E901010843E168A6
:1014500008432169084361690843A1690843E169B8
:101460000843216A08430543606A042803D1D4E98C
:101470000B0108430543206805602068456925F095
:101480000705606A0543606A04280DD1A06A054318
:10149000E06A48B12046FFF761FC28B14020606552
:1014A000012084F83500A6E7206845612046FFF753
:1014B0003BFC064694F85C103F208840B06000205A
:1014C0006065012084F83500002094E73F8010F02B
:1014D0002DE9F04704460D4616461F464FF000081A
:1014E000D4F8589000BF94F83400012802D10220AB
:1014F000BDE8F087012084F8340000BF94F835007F
:1015000001282BD1022084F83500002060653B467D
:10151000324629462046FFF776FC94F85C103F20BF
:101520008840C9F808002068006840F0160021686B
:1015300008602068406940F0800021684861206CA4
:1015400028B12068006840F0080021680860206821
:10155000006840F001002168086006E000BF00203C
:1015600084F8340000BF4FF002084046C0E7000096
:10157000F8B502460B460025002400200021DCE0DF
:10158000012606FA01F51E6806EA0504AC4273D18D
:101590005E68022E02D05E68122E13D1CF0802F1CF
:1015A000200656F827004E07F70E0F26BE40B04320
:1015B0004F07FF0E1E69BE403043CF0802F12006E0
:1015C00046F8270010684F000326BE40B0431E793E
:1015D00006F003064F00BE40304310605E68012EE7
:1015E00008D05E68022E05D05E68112E02D05E68BB
:1015F000122E13D190684F000326BE40B0434F0017
:10160000DE68BE4030439060506801268E40B04393
:101610001E79C6F300168E4030435060D0684F00EC
:101620000326BE40B0434F009E68BE403043D060AA
:101630005E6806F08056B6F1805F7DD100BF00265F
:101640000096404E366846F480463E4F3E603E4629
:10165000366806F48046009600BF00BF3A4E8F08F9
:1016600056F827008E07370F0F26BE40B043374E7F
:10167000B24202D1002624E05EE0354EB24201D1F2
:1016800001261EE0334EB24201D1022619E0324E4D
:10169000B24201D1032614E0304EB24201D10426F9
:1016A0000FE02F4EB24201D105260AE02D4EB24284
:1016B00001D1062605E02C4EB24201D1072600E0FA
:1016C00008268F073F0FBE4030431F4E8F0846F855
:1016D0002700264E3068A0435E6806F48036B6F5D3
:1016E000803F00D12043214E3060361D3068A0433A
:1016F0005E6806F40036B6F5003F00D120431B4E6D
:10170000361D3060361D3068A0435E6806F48016D2
:10171000B6F5801F00D12043144E08363060361DC8
:101720003068A0435E6806F40016B6F5001F00D1CD
:1017300020430E4E0C363060491C1029FFF420AFB8
:10174000F8BD000044380240083801400000024063
:101750000004024000080240000C02400010024059
:101760000014024000180240001C0240003C0140EE
:10177000024613690B400BB1012000E000207047C6
:101780000AB1816101E00B04836170470148006880
:10179000704700008800002010B50D48006840F434
:1017A00000700B4908600846006840F480600860DB
:1017B0000846006840F480700860032000F0AAF832
:1017C0000F2000F007F800F02BF8002010BD0000FB
:1017D000003C024070B504460E4800784FF47A7120
:1017E000B1FBF0F00C490968B1FBF0F5284600F0B8
:1017F00007FC08B1012070BD102C07D20022214641
:10180000501E00F048F80548046001E00120F2E7AE
:101810000020F0E770000020740000206C00002021
:1018200010B5032000F076F8002211466FF00B008F
:1018300000F031F8002211466FF00A0000F02BF89A
:10184000002211466FF0090000F025F80022114631
:10185000501F00F020F800221146101F00F01BF866
:1018600000221146901E00F016F800221146501E6C
:1018700000F011F810BD01460846002809DB00F011
:101880001F0301229A4043099B0003F1E023C3F8A0
:10189000002100BF70472DE9F05F80460D461646D7
:1018A000002702F01FF9074639462A46334601F061
:1018B0000700C0F1070ABAF1040F02D94FF0040A79
:1018C00001E0C0F1070AD14600F1040ABAF1070F9E
:1018D00002D24FF0000A01E0A0F1030AD4464FF013
:1018E000010A0AFA09FAAAF1010A0AEA020A0AFA3C
:1018F0000CFA4FF0010B0BFA0CFBABF1010B0BEAEE
:10190000030B4AEA0B042146404602F0F3F8BDE817
:10191000F09F000000BF00F00702064B19684FF669
:10192000FF031940044B0B4343EA0221014B1960AA
:1019300000BF70470CED00E00000FA0570B50446EA
:101940000D460CB9012070BD5848006800F00F002A
:10195000A84209D255490D700846006800F00F00F2
:10196000A84201D00120EEE7207800F00200022812
:101970001DD1207800F00400042805D14C480068EF
:1019800040F4E0504A490860207800F00800082838
:1019900005D14748006840F4604045490860444824
:1019A000006820F0F000A1680843414908602078F1
:1019B00000F00100A8B36068012807D13C4808384E
:1019C0000068C0F34040B8B90120BCE76068022855
:1019D00002D06068032807D1354808380068C0F392
:1019E000406048B90120AEE7314808380068C0F3CC
:1019F000400008B90120A6E72D48006820F0030048
:101A0000616808432A490860FFF7C0FE064609E0FE
:101A1000FFF7BCFE801B41F28831884202D90320C7
:101A200091E707E02248006800F00C006168B0EB25
:101A3000810FEDD11D48006800F00F00A84209D9C0
:101A40001A490D700846006800F00F00A84201D046
:101A5000012078E7207800F00400042807D114481A
:101A6000006820F4E050E1680843114908602078DC
:101A700000F00800082808D10D48006820F46040F4
:101A8000216940EAC1000A49086000F03DF80849B0
:101A90000968C1F30311074A515CC8400649086050
:101AA0000F20FFF797FE00204DE70000003C0240AA
:101AB00008380240607E0408740000200148006875
:101AC000704700007400002000B5FFF7F7FF0449DD
:101AD0000968C1F38221034A515CC84000BD00007F
:101AE00008380240707E040800B5FFF7E7FF04499C
:101AF0000968C1F34231034A515CC84000BD00008F
:101B000008380240707E04082DE9F04700240025C3
:101B10000026A1462548006800F00C0020B10428EA
:101B200005D008283AD105E0DFF8849039E0DFF8E5
:101B3000849036E01D48001F006800F03F041B48F9
:101B4000001F006800F4800078B11A481749091F87
:101B50000968C1F38811A0FB0170014622460023E9
:101B60003846FEF76BFC05460EE011480F49091F89
:101B70000968C1F38811A0FB0170014622460023C9
:101B80003846FEF75BFC05460848001F0068C0F3B6
:101B90000140401C4600B5FBF6F902E0DFF810906A
:101BA00000BF00BF4846BDE8F0870000083802408B
:101BB0000024F40000127A00F8B504460CB90120A4
:101BC000F8BD207800F00100002874D0F9480068C2
:101BD00000F00C0004280DD0F648006800F00C005E
:101BE000082813D1F348001F006800F48000B0F506
:101BF000800F0BD1EF4808380068C0F34040002840
:101C000059D06068002856D10120D9E700BF60682C
:101C1000B0F5803F08D1E7480838006840F48030CC
:101C2000E449083908601EE06068B0F5A02F0DD1C6
:101C3000E0480838006840F48020DE490839086030
:101C40000846006840F4803008600CE0D948083845
:101C5000006820F48030D7490839086008460068D9
:101C600020F48020086000BF606890B1FFF78EFD0F
:101C7000054606E0FFF78AFD401B642801D90320D2
:101C80009EE7CC4808380068C0F340400028F1D0F7
:101C900011E0FFF77BFD054606E0FFF777FD401BEF
:101CA000642801D903208BE7C24808380068C0F3D4
:101CB00040400028F1D1207800F0020002285FD1D6
:101CC000BC48006800F00C0058B1BA48006800F049
:101CD0000C0008281CD1B748001F006800F48000E1
:101CE000B0B9B44808380068C0F3400020B1E068DB
:101CF000012801D0012063E7AE480838006820F0D1
:101D0000F800216940EAC100AA490839086037E0B3
:101D1000E06800B30120A8490860FFF737FD0546D9
:101D200006E0FFF733FD401B022801D9032047E7F7
:101D3000A04808380068C0F340000028F1D09D4852
:101D40000838006820F0F800216940EAC10099498C
:101D50000839086014E0002097490860FFF716FD75
:101D6000054606E0FFF712FD401B022801D90320BB
:101D700026E7904808380068C0F340000028F1D1F9
:101D8000207800F0080008282CD16069A8B1012053
:101D90008A490860FFF7FAFC054606E0FFF7F6FC03
:101DA000401B022801D903200AE782486C300068F2
:101DB000C0F340000028F1D014E000207F49086003
:101DC000FFF7E4FC054606E0FFF7E0FC401B0228B5
:101DD00001D90320F4E677486C300068C0F3400076
:101DE0000028F1D1207800F00400042870D10026EA
:101DF00070483830006800F0805090B900BF002073
:101E000000906C483830006840F0805069493831A3
:101E100008600846006800F08050009000BF00BFD6
:101E200001266748006800F48070B0B96448006813
:101E300040F4807062490860FFF7A8FC054606E0A0
:101E4000FFF7A4FC401B022801D90320B8E65C4838
:101E5000006800F480700028F2D000BFA06801285C
:101E600008D154486830006840F001005149683199
:101E700008601DE0A06805280DD14E486830006854
:101E800040F004004B49683108600846006840F0A3
:101E9000010008600CE047486830006820F001004D
:101EA0004449683108600846006820F00400086072
:101EB00000BFA068A8B1FFF769FC054609E0FFF77D
:101EC00065FC401B41F28831884202D9032077E645
:101ED00026E0384868300068C0F340000028EED0A3
:101EE00013E0FFF753FC054608E0FFF74FFC401BEB
:101EF00041F28831884201D9032061E62D486830DB
:101F00000068C0F340000028EFD1012E07D1294816
:101F10003830006820F0805026493831086000BF12
:101F2000A069B8B32348006800F00C0008285ED010
:101F3000A069022846D100201F490866FFF726FC49
:101F4000054606E0FFF722FC401B022801D90320CA
:101F500036E6184808380068C0F340600028F1D120
:101F6000D4E907010843616A40EA81110122A06AAD
:101F7000C2EB500041EA00412C20005D41EA0060C4
:101F80000C49091F086001200B490866FFF7FEFB9A
:101F9000054607E02DE0FFF7F9FB401B022801D9B9
:101FA00003200DE6034808380068C0F340600028AD
:101FB000F1D01EE00838024000004742800E474240
:101FC0000070004000200C490866FFF7DFFB054663
:101FD00006E0FFF7DBFB401B022801D90320EFE5F9
:101FE00006480068C0F340600028F2D101E00120FB
:101FF000E6E50020E4E5000000004742003802402A
:1020000070B504462546681EB0F1807F01D30120DB
:102010000FE0681E4FF0E02148610F214FF0FF30C4
:1020200001F068FD00204FF0E02188610720086181
:10203000002070BD024600BF92F83800012801D18F
:1020400002207047012082F8380000BF022082F889
:1020500039001068406820F07000136858601068FC
:1020600040680B681843136858601068806820F057
:10207000800013689860106880684B681843136884
:102080009860012082F8390000BF002082F83800F3
:1020900000BF00BFD5E770B504460D46164600BF29
:1020A00094F83800012801D1022070BD012084F885
:1020B000380000BF022084F8390036B1042E1BD04E
:1020C000082E31D00C2E5ED145E02946206801F063
:1020D000C3F82068806940F00800216888612068A2
:1020E000806920F00400216888612068806929697E
:1020F00008432168886147E02946206801F0E4F838
:102100002068806940F400602168886120688069E7
:1021100020F480602168886120688069296940EA2C
:102120000120216888612FE02946206801F008F924
:102130002068C06940F008002168C8612068C06953
:1021400020F004002168C8612068C069296908433B
:102150002168C86118E02946206801F02DF920683F
:10216000C06940F400602168C8612068C06920F43B
:1021700080602168C8612068C069296940EA01203F
:102180002168C86100E000BF00BF012084F8390069
:1021900000BF002084F8380000BF00BF85E710B5FD
:1021A00004460CB9012010BD94F8390028B900206C
:1021B00084F83800204600F00DF8022084F8390039
:1021C000211D206800F0C8FF012084F8390000209C
:1021D000E9E7000038B504463B492068884212D13F
:1021E0003AA005F0E9F800BF002000903F480068E1
:1021F00040F001003D4908600846006800F0010019
:10220000009000BF00BF3A492068884214D139A02D
:1022100005F0D2F800BF002000903448001F00688D
:1022200040F002003149091F08600846006800F0CC
:102230000200009000BF00BF36492068884214D1D8
:1022400035A005F0B9F800BF002000902748001F16
:10225000006840F004002549091F0860084600682E
:1022600000F00400009000BF00BF3349206888429E
:1022700012D132A005F0A0F800BF002000901B484A
:10228000006840F00200194908600846006800F044
:102290000200009000BF00BF30492068884212D180
:1022A0002FA005F089F800BF002000900F480068BB
:1022B00040F480300D4908600846006800F4803022
:1022C000009000BF00BF38BD000001405F5F484183
:1022D0004C5F5243435F54494D315F434C4B5F4524
:1022E0004E41424C4528290A0D0000004438024066
:1022F000000400405F5F48414C5F5243435F5449D4
:102300004D335F434C4B5F454E41424C4528290AB3
:102310000D000000000800405F5F48414C5F5243E1
:10232000435F54494D345F434C4B5F454E41424CF3
:102330004528290A0D000000000401405F5F484164
:102340004C5F5243435F54494D385F434C4B5F45AC
:102350004E41424C4528290A0D0000000040014032
:102360005F5F48414C5F5243435F54494D395F437F
:102370004C4B5F454E41424C4528290A0D00000058
:1023800030B504460D4601222946206800F056FF6C
:102390000C492068884203D00B492068884201D14B
:1023A000012000E0002028B12068406C40F400408B
:1023B000216848642068006840F0010021680860D6
:1023C000002030BD000001400004014030B504464B
:1023D0000D4600222946206800F030FF1B49206886
:1023E000884203D01A492068884201D1012000E0C8
:1023F000002090B100BF2068006A41F2111108402E
:1024000050B92068006A8910084028B92068406CDB
:1024100020F400402168486400BF00BF2068006AC3
:1024200041F21111084050B92068006A8910084033
:1024300028B92068006820F001002168086000BF0A
:10244000012084F83900002030BD00000000014068
:1024500000040140704700002DE9F0470446206861
:1024600005682068C668206847694FF00008C146C3
:1024700005F00F08B8F1000F0AD105F0200038B1BF
:1024800006F0200020B1204600F0F8FFBDE8F087FC
:10249000B8F1000F6DD007F0010018B906F4907084
:1024A000002866D005F0010030B106F4807018B144
:1024B000E06B40F00100E06305F0040030B107F08C
:1024C000010018B1E06B40F00200E06305F002008B
:1024D00030B107F0010018B1E06B40F00400E06398
:1024E00005F0080030B107F0010018B1E06B40F0D2
:1024F0000800E063E06B68B305F0200028B106F047
:10250000200010B1204600F0B9FF20684069C0F3F8
:102510008019E06B00F0080010B9B9F1000F22D06B
:10252000204600F08BFF2068406900F04000B0B109
:102530002068406920F0400021684861606B50B11C
:102540001748616B0865606BFEF718FE10B1606B91
:10255000016D88470CE02046FFF77CFF08E020462D
:10256000FFF778FF04E02046FFF774FF0020E063E8
:102570008CE705F0800030B106F0800018B12046ED
:1025800001F07EF982E705F0400030B106F040002E
:1025900018B1204600F062FF78E700BF76E7000040
:1025A0002934040810B504460CB9012010BDA069F7
:1025B00000B100E000BF94F8390028B9002084F889
:1025C0003800204600F028F8242084F839002068DC
:1025D000C06820F400502168C860204600F09CFFCD
:1025E0002068006920F490402168086120684069F3
:1025F00020F02A00216848612068C06840F400503B
:102600002168C8600020E063202084F8390084F845
:102610003A000020CAE7000010B586B004463C49E5
:102620002068884238D100BF0020009039480068F7
:1026300040F01000374908600846006800F01000BC
:10264000009000BF00BF00BF002000903148143848
:10265000006840F001002F491439086008460068FE
:1026600000F00100009000BF00BF4FF4C060019077
:10267000022002900120039003200490072005907F
:1026800001A92548FEF774FF022200212520FFF74B
:1026900002F92520FFF7EFF820492068884235D15C
:1026A00000BF002000901B48001F006840F480100D
:1026B0001849091F08600846006800F4801000905F
:1026C00000BF00BF881401900220029001200390F7
:1026D000032004900820059001A91148FEF748FF47
:1026E0000420019002200290012003900320049016
:1026F0000820059001A90B48FEF73AFF02220021AD
:102700003520FFF7C8F83520FFF7B5F806B010BD43
:1027100000100140443802400000024000500040D8
:1027200000080240000C024010B5034693F83A003E
:10273000202829D101B10AB9012010BD00BF93F8AA
:102740003800012801D10220F7E7012083F8380082
:1027500000BF99629A85DA850020D863222083F829
:102760003A0000BF002083F8380000BF18684069B5
:1027700040F001001C6860611868C06840F4907007
:102780001C68E0600020D8E70220D6E72DE9F04180
:1027900005460024FEF7FAFF07464E49286888429E
:1027A0007ED14D4804784D480068381AC82804D9AD
:1027B00000204B49087049480760494800780828BC
:1027C0007FD2DFE800F0040A1A23323D495A552C23
:1027D00002D101204249087073E0FF2C07D102208A
:1027E0003F4908704FF655703E49088004E0552C6B
:1027F00002D000203A49087063E00320384908708D
:10280000384844800020384908805AE00420344980
:1028100008703448408800EB042032494880324830
:102820000088401C304908804BE005202C49087086
:102830002C4804712C480088401C2B49088040E03B
:102840000620274908702748A0F805402648008838
:10285000401C2549088034E00720214908702148A0
:10286000B0F8050000EB04201E49A1F805001E4841
:102870000088401C1C49088023E01A4EF61C1A48A8
:1028800000880644347018480088401C80B21649FD
:1028900008801449498888420FDB1248408800E0CC
:1028A00015E0C21C0F491148FDF7A8FF00200C4994
:1028B000087001200E49087002E0072008490870DE
:1028C00000BF00BF012204492846FFF72DFFBDE8E5
:1028D000F081000000100140440000204000002072
:1028E0001C0000203008002036000020380A00209C
:1028F0000000002010B5034693F83900202823D1AA
:1029000001B10AB9012010BD00BF93F838000128B9
:1029100001D10220F7E7012083F8380000BF1962D7
:102920009A84DA840020D863212083F8390000BF1C
:10293000002083F8380000BF1868C06840F08000AD
:102940001C68E0600020DEE70220DCE7704700BF83
:10295000FEE7000010B586B001200290039002202F
:10296000049000240CE0084800EBC400808801902B
:10297000054951F8340001A9FEF7FAFD601CC4B204
:10298000102CF0DB06B010BD707D040810B50E4AA7
:1029900091881068FEF7ECFE0C49C8740A4A9189C8
:1029A0009068FEF7E5FE09490875074A918A1069A3
:1029B000FEF7DEFE05494875034A918B9069FEF7E4
:1029C000D7FE0249887510BD107804088E0F0020CC
:1029D00070B58EB0EA4C40F24D150226E948EA493E
:1029E0000860EA480068B0FBF4F0401E486000212F
:1029F000E5488160B4FBF5F1C16000210161FFF79A
:102A0000CEFB00200C900D900CA9DF48FFF712FBC5
:102A100060200590B4FBF5F0400806900020079078
:102A20000990DB4805A98268D748FFF734FBD848EE
:102A300005A94269D448FFF72EFBD54805A9026DC8
:102A4000D148FFF728FBD24805A9C26DCE48FFF751
:102A500022FB12200190012002900320039001200C
:102A60000490CB4880880090C94908686946FEF701
:102A70007FFDC748008A0090C549C8686946FEF7CF
:102A800077FDC348B0F84C000090C149886C694696
:102A9000FEF76EFDBE48B0F858000090BC49486D86
:102AA0006946FEF765FDBB48BB490860B74800684A
:102AB000B0FBF4F0B0FBF6F0401E48600021B648D1
:102AC0008160B4FBF5F1C16000210161FFF767FB94
:102AD00000200C900D900CA9AF48FFF7ABFA6020D6
:102AE0000590B4FBF5F0400806900020079009908F
:102AF000A74805A9026AA848FFF7CDFAA44805A986
:102B0000C26AA548FFF7C7FA12200190012002907F
:102B100003200390022004909D48808B00909C49E4
:102B200088696946FEF724FD9948008D0090984910
:102B3000486A6946FEF71CFD984899490860934821
:102B40000068B0FBF4F0B0FBF6F0401E48600021D6
:102B500093488160B4FBF5F1C16000210161FFF78A
:102B60001EFB00200C900D900CA98D48FFF762FA17
:102B700060200590B4FBF5F0400806900020079017
:102B80000990834805A9826B8548FFF784FA80483D
:102B900005A9426C8248FFF77EFA7D4805A9D0F866
:102BA000B0207F48FFF777FA794805A9D0F8BC2014
:102BB0007B48FFF770FA1220019001200290032059
:102BC0000390022004907248808E00907049086B38
:102BD0006946FEF7CDFC6E48B0F8400000906C49A5
:102BE000C86B6946FEF7C4FC6948B0F8AC000090B9
:102BF0006749D1F8A8006946FEF7BAFC6448B0F806
:102C0000B80000906249D1F8B4006946FEF7B0FC04
:102C10006448654908605D480068B0FBF4F0401EF8
:102C20004860002160488160B4FBF5F1C16000217B
:102C30000161FFF7B4FA00200C900D900CA95A48DE
:102C4000FFF7F8F960200590B4FBF5F04008069016
:102C50000020079009904E4805A9826E5248FFF760
:102C60001AFA4B4805A9426F4F48FFF714FA484833
:102C700005A9D0F880204C48FFF70DFA444805A973
:102C8000D0F88C204848FFF706FA12200190012066
:102C900002900320039004903D48B0F86400009037
:102CA0003B49086E6946FEF763FC3948B0F870008E
:102CB00000903749C86E6946FEF75AFC3448B0F8B0
:102CC0007C0000903249886F6946FEF751FC30481D
:102CD000B0F8880000902E49D1F884006946FEF7CC
:102CE00047FC32483249086028480068B0FBF4F0DD
:102CF000401E486000212E488160B4FBF5F1C160A0
:102D000000210161FFF74BFA00200C900D900CA9F7
:102D10002748FFF78FF960200590B4FBF5F04008D5
:102D20000690002007900990194805A9D0F898202E
:102D30001F48FFF7B0F9164805A9D0F8A4201C4891
:102D4000FFF7A9F9122001900120029003200390BF
:102D500004900F48B0F8940000900D49D1F890000D
:102D60006946FEF705FC0A48B0F8A0000090084943
:102D7000D1F89C006946FEF7FBFB0EB070BD000069
:102D800040420F0000000140AC1000207400002001
:102D9000B07C040800040040E81000200008004057
:102DA0002411002000040140601100200040014077
:102DB0009C11002000BFFEE7704710B502460B468D
:102DC0000024002103E0505C2044C4B2491C994215
:102DD000F9DBE043401CC0B210BD10B502460B4603
:102DE0000020002103E0545C0444E0B2491C9942F5
:102DF000F9DB10BD10B58AB000BF00200090454837
:102E0000006840F48070434908600846006800F498
:102E10008070009000BF00BF3F484049086000201C
:102E2000486000213D4881600121016181610021EC
:102E30000162C1623A4981620021C1601021C16111
:102E40000121016300214161FEF7BEF807200890CF
:102E50000320029000200390079000241CE004EB64
:102E60004400304901EB80008088019004EB44016C
:102E70002C4A52F8210001A9FEF77AFB601C07904A
:102E800004EB4400274901EB80008068069006A906
:102E90002248FDF7CFFF641C102CE0DB00BF0020B0
:102EA00000901C481438006840F480001949143917
:102EB00008600846006800F48000009000BF00BF72
:102EC000002211463820FEF7E6FC3820FEF7D3FC3E
:102ED00015481649086000204860002113488160A9
:102EE000C1604FF4806101614900416189008161E5
:102EF0004911C161002101624162FEF773FA00BF0E
:102F00000A480649886308460849886300BF0AB032
:102F100010BD00004438024000200140A000002005
:102F20000100000F5077040810640240E800002000
:102F300010B586B000200290039003200490002476
:102F40000CE0134800EBC40080880190104951F850
:102F5000340001A9FEF70CFB601CC4B2042CF0DBAA
:102F60004FF40060019001A90A48FEF701FB4FF4FD
:102F70008060019001A90748FEF7FAFA4FF400407B
:102F8000019001A90448FEF7F3FA06B010BD000055
:102F900010780408000802400000024000B593B019
:102FA00000BF002001902148006840F080501F4978
:102FB00008600846006800F08050019000BF00BF24
:102FC00000BF002001901A48006840F48040184972
:102FD00008600846006800F48040019000BF00BF10
:102FE000012007900004089002200D9041050E91E9
:102FF00008210F914FF4A87110910221119107211E
:10300000129107A8FEF7D8FD0D2002900220039030
:10301000002004904FF4A05005904FF4805006908B
:10302000052102A8FEF78AFC13B000BD403802401B
:103030000070004070B5002000220223002402210D
:10304000274D2D6805F00C0020B1042806D0082873
:1030500034D107E0234D244E356033E0234D224E1A
:1030600035602FE01E4D2D1F2D68C5F380541C4D7B
:103070002D1F2D6805F03F0154B11C4DB5FBF1F536
:10308000174E361F3668C6F3881605FB06F209E0B0
:10309000144DB5FBF1F5124E361F3668C6F388168F
:1030A00005FB06F20E4D2D1F2D68C5F301456D1C65
:1030B0006B00B2FBF3F50C4E356003E0094D0A4E90
:1030C000356000BF00BF064D2D68C5F30315084EDF
:1030D000705D054D2D68C540034E356070BD000024
:1030E000083802400024F4007400002000127A0026
:1030F000607E04081348006840F4700011490860BD
:103100001148006840F001000F49086000200E4996
:10311000083108600C4800680C4908400A490860FA
:103120000B48091D0860081F006820F48020091F53
:103130000860002004490C310860064801498039C4
:103140000860704788ED00E000380240FFFFF6FE9F
:103150001030002400000408002202682C4B984222
:103160000ED0B0F1804F0BD02A4B984208D02A4B9A
:10317000984205D0294B984202D0294B984201D160
:10318000012300E000231BB122F070024B681A43B8
:103190001F4B984220D0B0F1804F1DD01D4B98425C
:1031A0001AD01D4B984217D01C4B984214D01C4B80
:1031B000984211D01B4B98420ED01B4B98420BD01B
:1031C0001A4B984208D01A4B984205D0194B984296
:1031D00002D0194B984201D1012300E000231BB11A
:1031E00022F44072CB681A4302608B68C3620B689A
:1031F0008362074B984202D0094B984201D10123C8
:1032000000E000230BB10B690363012343617047A6
:10321000000001400004004000080040000C004095
:1032200000040140004001400044014000480140CA
:1032300000180040001C00400020004030B5002372
:10324000012404FA01F3046A9C430462046A02FA4A
:1032500001F52C43046230BD30B500240022002368
:10326000056A25F001050562026A4368846924F055
:10327000700424F003040D682C4322F002028D68D0
:103280002A430F4DA84202D00E4DA84201D101257C
:1032900000E000256DB122F00802CD682A4322F03B
:1032A000040223F4807323F400734D692B438D696A
:1032B0002B43436084614D684563026230BD00006A
:1032C000000001400004014030B50024002200232A
:1032D000056A25F010050562026A4368846924F4D2
:1032E000E04424F440740D6844EA052422F02002EE
:1032F0008D6842EA0512104DA84202D00F4DA84237
:1033000001D1012500E0002585B122F08002CD68C1
:1033100042EA051222F0400223F4806323F40063A2
:103320004D6943EA85038D6943EA850343608461FF
:103330004D688563026230BD000001400004014019
:1033400030B5002400220023056A25F4807505624B
:10335000026A4368C46924F0700424F003040D6811
:103360002C4322F400728D6842EA0522104DA842D7
:1033700002D0104DA84201D1012500E0002585B101
:1033800022F40062CD6842EA052222F4806223F42E
:10339000805323F400534D6943EA05138D6943EAD2
:1033A00005134360C4614D68C563026230BD00000F
:1033B000000001400004014030B500220023002439
:1033C000056A25F480550562036A4468C26922F4DF
:1033D000E04222F440720D6842EA052223F40053D1
:1033E0008D6843EA05330A4DA84202D0094DA84230
:1033F00001D1012500E0002525B124F480444D6968
:1034000044EA85144460C2614D680564036230BDBE
:10341000000001400004014010B50248FFF71CF80D
:1034200010BD0000C801002070B50546AC6B00203F
:10343000E085E0842046FFF70DF870BD0168C9689B
:1034400021F490710268D1600168496921F001019D
:1034500002685161202180F83A10704710B5044687
:103460002068C06820F040002168C860202084F8EF
:1034700039002046FFF76AFA002010BD70B50446F7
:1034800094F83A00222844D1A068B0F5805F13D1A7
:10349000A56A206940B920684068C0F30800288008
:1034A000A06A801CA06219E020684068C0B2288031
:1034B000A06A401CA06211E0206938B92068406809
:1034C000C1B2A26A501CA062117007E02068406877
:1034D00000F07F01A26A501CA0621170E08D401EB6
:1034E00080B2E08598B92068C06820F490702168A7
:1034F000C8602068406920F00100216848612020F0
:1035000084F83A002046FFF741F9002070BD002002
:10351000FCE70220FAE700002DE9F041044600250F
:103520002068056925F44055E06805432068056179
:103530002068C56849F20C6085432169A06808438A
:1035400061690843E169084305432068C560206854
:10355000456925F44075A069054320684561E06927
:10356000B0F5004F7ED1C4492068884203D0C349DA
:10357000206888425DD1FEF7B7FA00EBC00101EB8D
:10358000001061684900B0FBF1F06421B0FBF1F07C
:103590000601FEF7A9FA00EBC00101EB001061681B
:1035A0004900B0FBF1F7FEF79FFA00EBC00101EB19
:1035B000001061684900B0FBF1F06421B0FBF1F04C
:1035C00000EBC00101EB0010A7EB8000322101EB02
:1035D000C0006421B0FBF1F000F0F80006EB4006FB
:1035E000FEF782FA00EBC00101EB001061684900B0
:1035F000B0FBF1F7FEF778FA00EBC00101EB001029
:1036000061684900B0FBF1F06421B0FBF1F000EB20
:10361000C00101EB0010A7EB8000322101EBC000DC
:103620006421B0FBF1F000F00700304421688860AD
:1036300020E1FEF749FA00EBC00101EB00106168E0
:103640004900B0FBF1F06421B0FBF1F00601FEF798
:103650003BFA00EBC00101EB001061684900B0FBD0
:10366000F1F700E045E0FEF72FFA00EBC00101EBB7
:10367000001061684900B0FBF1F06421B0FBF1F08B
:1036800000EBC00101EB0010A7EB8000322101EB41
:10369000C0006421B0FBF1F000F0F80006EB40063A
:1036A000FEF712FA00EBC00101EB0010616849005F
:1036B000B0FBF1F7FEF708FA00EBC00101EB0010D8
:1036C00061684900B0FBF1F06421B0FBF1F000EB60
:1036D000C00101EB0010A7EB8000322101EBC0001C
:1036E0006421B0FBF1F000F00700304421688860ED
:1036F000C0E061492068884203D060492068884260
:103700005CD1FEF7F1F900EBC00101EB001061683C
:103710008900B0FBF1F6FEF7E7F900EBC00101EB21
:10372000001061688900B0FBF1F06421B0FBF1F09A
:1037300000EBC00101EB0010A6EB8000322101EB91
:1037400000106421B0FBF1F000F0F006FEF7CCF9B8
:1037500000EBC00101EB001061688900B0FBF1F0E3
:103760006421B0FBF1F006EB0016FEF7BDF900EBAB
:10377000C00101EB001061688900B0FBF1F7FEF7B2
:10378000B3F900EBC00101EB001061688900B0FBE8
:10379000F1F06421B0FBF1F000EBC00101EB00108F
:1037A000A7EB8000322101EB00106421B0FBF1F0A7
:1037B00000F00F003044216888605BE0FEF784F978
:1037C00000EBC00101EB001061688900B0FBF1F66D
:1037D000FEF77AF900EBC00101EB00106168890087
:1037E000B0FBF1F06421B0FBF1F000EBC00101EBA4
:1037F0000010A6EB8000322101EB00106421B0FB29
:10380000F1F000F0F006FEF75FF900EBC00101EB0C
:10381000001061688900B0FBF1F06421B0FBF1F0A9
:1038200006EB0016FEF750F900EBC00101EB0010AB
:1038300061688900B0FBF1F7FEF746F900EBC001C3
:1038400001EB001061688900B0FBF1F06421B0FB6E
:10385000F1F000EBC00101EB0010A7EB800032217A
:1038600001EB00106421B0FBF1F000F00F003044D8
:1038700021688860BDE8F08100100140001401401B
:10388000014691F8390021282CD18868B0F5805F75
:103890000FD10A6A1088C0F308000B6858600869E5
:1038A00018B9086A801C086209E0086A401C0862AE
:1038B00005E00B6A581C086218780B685860C88CC1
:1038C000401E80B2C88458B90868C06820F08000E3
:1038D0000B68D8600868C06840F040000B68D8608A
:1038E000002070470220FCE710B50248FEF7B4FD47
:1038F00010BD0000880100202DE9F04105460F466B
:103900001446042C05D104206D4908720720488014
:10391000A6E028461C2D36D00CDC19282CD004DC5F
:1039200002280FD015286FD120E01A287FD01B283D
:10393000F9D15BE01D38052866D2DFE800F0516759
:103940006D7E84005F48007818B908205E490870D1
:1039500002E001205C49087017225B495848083092
:10396000FCF74CFF1D205649488078E0544804720B
:1039700007205349488072E04FF40272534950487F
:10398000FCF73CFF6BE0524804705048007A504905
:1039900048704E48007A18B94B48C07C887015E0D2
:1039A0004A48007A012804D14748007D4849887078
:1039B0000CE04648007A022804D14348407D44493F
:1039C000887003E04048807D414988703C48404908
:1039D0000A880281897881720920394948803EE04D
:1039E0003748047207203649488038E0344804726A
:1039F000401C38490A6882608A888281897981738B
:103A00000E202F4948802AE023E010E02C48047261
:103A100007202B49488022E02948047212222E49AF
:103A20000930FCF7EBFE19202549488017E02448AF
:103A3000047207202249488011E0214804720720BF
:103A40001F4948800BE01E48047207201C4948802B
:103A500005E002201A4908720720488000BF00BF15
:103A60004FF6557016490880022008711748B0F8C3
:103A70000500A1F805000846C5714088B0F5027F31
:103A800002DD0220BDE8F0810D484188801CFFF76F
:103A900094F906460A484088C21C09490F48FCF7B9
:103AA000ADFE07484088801C0C490E5404484088ED
:103AB000C01C81B2094803F091FC0120E2E700003C
:103AC00028060020030000208E0F0020380A002066
:103AD0001D00002020000020F00C0020860D00209A
:103AE00000BFFEE702480068C0F3022070470000F4
:103AF0000CED00E010B5002804DB0A07130E054AA0
:103B0000135406E00A07140E034A00F00F031B1FAC
:103B1000D45410BD00E400E018ED00E010B5002A18
:103B200006DA22F00042D21D22F00703102203E041
:103B3000D21C22F003030C2213B19C188C4201D931
:103B4000012010BD024401448360C0E90021C91A6C
:103B5000D018884202D810600246F9E700201060B1
:103B600010BD30380A2801D201207047002070476C
:103B700005490978002905D000684FF6FF71DFF884
:103B80000CC000DF7047000079000020216C0408A1
:103B900004490978002903D00068DFF80CC000DF71
:103BA0007047000079000020496B040810B5D04927
:103BB000087800F099FD0446CD484078012831D1BD
:103BC00004F10900C1B200EB4000CA4A1154CA49CD
:103BD00004F1090031F8101000EB40001044A0F887
:103BE00001100121C54A04F109001154C24931F8FC
:103BF00010300246C249C348FCF798FCC14803F0A4
:103C0000DBFBBB480078BA490978BF4A02F81100CB
:103C10000120B749097802EB410148700020BB49F7
:103C2000087064E1B248407802287DD1B848007835
:103C300001283BD10020B649087004EB4400AD498F
:103C40000C54AD4830F8140004EB4401A94A114467
:103C5000A1F801000120A9490855A74830F81430FF
:103C60002246ACA1A748FCF761FCA64803F0A4FBE0
:103C7000601CC1B200EB40009E4A11549E49601C7A
:103C800031F8101000EB40001044A0F801100121A1
:103C90009A4A601C1154984931F81030621C9DA159
:103CA0009848FCF743FC974803F086FBC4EBC4003C
:103CB000A84908444078022806D1601CC0EBC00027
:103CC00008444078022814D0631C2246A2498D483B
:103CD000FCF72CFC8B4803F06FFBA0480078401CDD
:103CE0009E4908700846007832289AD10020087052
:103CF00000E000BF04F10800C1B200EB40007D4AC3
:103D000011547D4904F1080031F8101000EB400017
:103D10001044A0F801100121784A04F10800115460
:103D2000754931F8103000E018E002468C497548BA
:103D3000FCF7FCFB734803F03FFB6D4800786C49CF
:103D40000978714A02F8110002206949097802EBEA
:103D50004101487000206D490870C8E0644840780F
:103D600004287CD16A480078012823D100206849C2
:103D7000087004F10800C1B200EB40005D4A115424
:103D8000784904F1080031F8101000EB40001044AD
:103D9000A0F801100121594A04F1080011545649B4
:103DA00031F8103002466E495648FCF7BFFB5548C3
:103DB00003F002FB04F10800C0EBC00065490844B1
:103DC0004078032815D0631C224667494D48FCF70C
:103DD000ADFB4C4803F0F0FA60480078401C5F49A6
:103DE000087008460078B0F5967FB6D100200870BC
:103DF00000E000BF04EB44003E490C54594830F841
:103E0000140004EB44013B4A1144A1F801000120D5
:103E10003A490855384830F8143022463DA139480F
:103E2000FCF784FB374803F0C7FA601CC1B200EB13
:103E30004000304A11544B49601C31F8101000EB1F
:103E400040001044A0F8011001212C4A601C1154BC
:103E5000294931F81030621C2EA12A4800E015E0F3
:103E6000FCF764FB274803F0A7FA214800782049B3
:103E70000978254A02F8110004201D49097802EB4F
:103E80004101487000202149087030E004F1090028
:103E9000C1B200EB4000174A1154324904F1090045
:103EA00031F8101000EB40001044A0F8011001217F
:103EB000124A04F1090011540F4931F8103002463A
:103EC0002A491048FCF732FB0E4803F075FA0848FF
:103ED0000078074909780C4A02F8110003200449C8
:103EE000097802EB4101487000200849087010BDB4
:103EF0002A000020B00C0020F81100200802002049
:103F000070800408220D00202C00002005000020F5
:103F1000060000205B6374726C206175746F5D2015
:103F2000736572766F206D6F746F725B25645D20B0
:103F3000636C616D70202D2D2D2D2064757479209A
:103F40006379636C65202564200A0D202D2D2D20BA
:103F50000A0D0000400C0020447F040807000020E8
:103F60002C800408D8110020907F0408E47F040806
:103F700010B548480078012845D1464840780128C6
:103F800020D145A14B48FCF7D1FA4A4803F014FA76
:103F9000494800883F4948804748408888804648CB
:103FA0008088C8804448C088088143480089488187
:103FB00041484089888140488089C8813E48C089FD
:103FC000088265E03DA13B48FCF7B0FA394803F0B0
:103FD000F3F9424800882F4948804048408888804B
:103FE0003E488088C8803D48C08808813B48008999
:103FF00048813A484089888138488089C881374853
:10400000C089088244E023484078012820D134A1A7
:104010002848FCF78BFA274803F0CEF91D48408862
:10402000254908801B48808848801A48C0888880B5
:1040300018480089C8801748408908811548808938
:1040400048811448C08988811248008AC8811FE0CD
:104050002BA11848FCF76AFA164803F0ADF90D4891
:1040600040881E4908800B48808848800948C088DD
:10407000888008480089C88006484089088105482A
:10408000808948810348C08988810248008AC881A4
:1040900010BD0000F00C00202063616C696220708C
:1040A000726F63657373207265616420636C616D08
:1040B000700A0D00220D0020F81100202063616CB1
:1040C00069622070726F636573732072656164202A
:1040D00072656C656173650A0D000000D8110020DF
:1040E0002063616C69622070726F636573732077FF
:1040F0007269746520636C616D700A0D00000000C8
:104100002063616C69622070726F636573732077DE
:10411000726974652072656C656173650A0D0000D3
:1041200000201AE0C0EBC0010D4A11444978022971
:104130000CD1411CC1EBC10111444978022905D1C0
:104140000122084B00F108015A5404E00022054BFB
:1041500000F108015A54811CC8B20828E2DB7047FC
:10416000400C0020E00C00201D4800781D4901EBA8
:1041700040004078032805D11948407801282DD007
:104180000220704716480078164901EB400040783D
:10419000012805D11248407802281FD00220F0E7FC
:1041A0000F4800780F4901EB40004078022805D104
:1041B0000B484078042811D00220E2E70848007834
:1041C000084901EB40004078042805D104484078B4
:1041D000032803D00220D4E70320D2E70120D0E750
:1041E0002A0000202C0000200146082905D00A29B9
:1041F00003D00C2901D00E2901D1012070470220E3
:10420000FCE700001DA003F0D7F8002403E0002025
:1042100021490855641C082CF9DB002415E040F204
:104220006C701E4921F814004FF496601C4921F867
:1042300014004FF4FA61194A04F1080022F8101032
:104240004910174A22F81010641C082CE7DB0020E4
:1042500014490870FEF79AFB01F060F900F0C0FA0B
:1042600000201149087001200E49087000BF1E206F
:1042700001F05EF801F032FAF9E7000020636F6E9A
:1042800074726F6C5F6D6F746F725F54687265618A
:1042900064200A0D0000000008000020D811002052
:1042A000F8110020030000200400002010B572481F
:1042B000007801287ED171A17648FCF737F975485E
:1042C00003F07AF8082435E0734830F814102046DB
:1042D00000F008F90121204600F0A6FE04EB44009E
:1042E0006E490C54C4EBC4006D490C540020C4EB5F
:1042F000C4016B4A114448700120C4EBC40111444D
:104300008870654830F8140004EB4401634A114496
:10431000A1F80100C4EBC401614A1144A1F80300F3
:10432000604830F81400C4EBC4011144A1F8050042
:10433000601CC4B2102CC7DB40F2DC5000F0F8FF68
:10434000002435E0544830F81410204600F0CAF834
:104350000121204600F068FE04EB44004F490C5454
:10436000C4EBC4004E490C540020C4EBC4014C4AB9
:10437000114448700120C4EBC401114488704648C0
:1043800030F8140004EB4401444A1144A1F8010040
:10439000C4EBC401424A1144A1F80300414830F87B
:1043A0001400C4EBC4011144A1F80500601CC4B2A0
:1043B000082C00E025E0C5DB4FF47A7000F0B8FF70
:1043C000002410E00021204600F02EFE0320C4EB64
:1043D000C401334A114448700020C4EBC4011144A5
:1043E0008870601CC4B2102CECDB002022490870DD
:1043F00003202D49487003212B48C1704171C171C0
:1044000039E0244802F0D8FF28480078002832D14B
:1044100027A12048FCF78AF8002419E023484078B7
:1044200050B91D4830F81410204600F05BF8012107
:10443000204600F0F9FD09E0284830F81410204625
:1044400000F050F80121204600F0EEFD601CC4B2DF
:10445000082CE3DB4FF4FA6000F06AFF002405E06B
:104460000021204600F0E0FD601CC4B2082CF7DB00
:1044700001201B49087010BD0200002020637472E7
:104480006C5F6D6F746F7220676F20686F6D652051
:104490000A0D0000220D0020D8110020B00C0020D1
:1044A000400C0020480100202C000020F00C0020CF
:1044B000206374726C5F6D6F746F722077726974B1
:1044C000652063616C69622072656C65617365204B
:1044D0006F7220636C616D70200A0D00F81100206E
:1044E00004000020102849D2DFE800F0080C101466
:1044F000181C2024282C3034383C4044214A1268AF
:1045000051633CE01F4A1268916338E01E4A12680A
:10451000916334E01C4A1268516330E01B4A126810
:1045200051632CE0194A1268916328E0154A126819
:10453000D16324E0134A1268116420E0144A12681F
:1045400051631CE0124A1268916318E0104A126825
:10455000D16314E00E4A1268116410E00D4A12682B
:1045600051630CE00B4A1268916308E0074A126835
:10457000D16304E0054A1268116400E000BF00BF87
:1045800070470000AC100020E8100020241100202B
:10459000601100209C11002008480068C0010BD564
:1045A00007480068C00707D0054880380068002821
:1045B00002DA04490120087070470000FCED00E0B9
:1045C000800E00E09C0000204FF06042D36F002B73
:1045D000FCD0036BD367D36F002BFCD0C07840EACC
:1045E0000120A2F87C0070474FF06041CA6F002A9A
:1045F000FCD081F87C00704770B54FF400612F4803
:10460000FDF7B6F804464FF480612C48FDF7B0F88A
:1046100005464FF400412A48FDF7AAF806463EB980
:1046200035B92CB9032227A12748FCF72CF943E020
:1046300046B93DB9012C05D1032224A12248FCF73B
:1046400022F939E046B9012D06D12CB9032220A167
:104650001D48FCF718F92FE04EB9012D07D1012CA8
:1046600005D103221BA11848FCF70DF924E0012E07
:1046700007D135B92CB9032217A11348FCF703F968
:104680001AE0012E08D13DB9012C05D1032213A156
:104690000D48FCF7F8F80FE0012E08D1012D06D1E6
:1046A0002CB903220EA10848FCF7EDF804E0032220
:1046B0000CA10548FCF7E7F870BD000000080240B7
:1046C00000000240312E3000920F0020312E3100C8
:1046D000312E3200312E3300312E3400312E350090
:1046E000312E3600312E3700014609B900207047BF
:1046F000012901D10220FAE7022901D10420F6E7BD
:104700000620F4E708B500BF002000903348006899
:1047100040F00100314908600846006800F00100DF
:10472000009000BF00BF00BF002000900846006856
:1047300040F0020008600846006800F002000090A7
:1047400000BF00BF00BF002000900846006840F096
:10475000040008600846006800F00400009000BFF4
:1047600000BF00BF002000900846006840F008002D
:1047700008600846006800F00800009000BF00BF15
:1047800000BF002000900846006840F0100008605C
:104790000846006800F01000009000BF00BF00BF96
:1047A000002000900846006840F08000086008463D
:1047B000006800F08000009000BF00BF00BF002034
:1047C00000900846006840F4807008600846006861
:1047D00000F48070009000BF00BF08BD3038024078
:1047E00070B5002400250026FBA002F0E5FD00BF07
:1047F00004E00020FE490855601CC4B2102CF8DB10
:10480000002597E245B9FB48C07C012801D101266B
:1048100000E0002608241DE0012D08D1F548007DA8
:10482000012801D1012600E000260A2412E0022D11
:1048300008D1F048407D012801D1012600E0002682
:104840000C2407E0EB48807D012801D1012600E01F
:1048500000260E24012E7DD104EB4400E6490C54C1
:10486000C4EBC400E5490C540220C4EBC401E34A84
:10487000114448700120C4EBC40111448870E04821
:1048800030F8140004EB4401DB4A1144A1F80100A4
:10489000C4EBC401D94A1144A1F80300D94830F847
:1048A0001400C4EBC4011144A1F80500C4EBC4001A
:1048B0001044B0F803102046FFF714FE21460120F3
:1048C00000F0C2FBC82000F033FD0121204600F0BB
:1048D000ABFBC82000F02CFD0021204600F0A4FB1B
:1048E0000020C4EBC401C54A11448870601CC4B2E6
:1048F00004EB4400C0490C54C4EBC40011460C54F2
:104900000220C4EBC401114448700120C4EBC4016F
:1049100011448870BA4830F8140004EB4401B64AD8
:104920001144A1F80100C4EBC401B44A1144A1F838
:104930000300B44830F81400C4EBC4011144A1F8DA
:104940000500C4EBC4001044B0F803102046FFF784
:10495000C9FD00E091E02146012000F075FBC82070
:1049600000F0E6FC0121204600F05EFBC82000F0CC
:10497000DFFC0021204600F057FB0020C4EBC401FF
:104980009E4A11448870A4F10900C4B204EB4400AB
:1049900099490C54C4EBC40011460C540220C4EBDA
:1049A000C401114448700120C4EBC4011144887053
:1049B000934830F81400C4EBC4011144A1F803007B
:1049C000904830F81400C4EBC4011144A1F805006C
:1049D000C4EBC4001044B0F803102046FFF782FD7A
:1049E0002146012000F030FB0021204600F01CFB96
:1049F000601CC4B204EB44007F490C54C4EBC400F7
:104A00007E490C540220C4EBC4017C4A1144487016
:104A10000120C4EBC40111448870794830F81400B7
:104A200004EB4401744A1144A1F80100C4EBC40131
:104A3000724A1144A1F80300724830F81400C4EB24
:104A4000C4011144A1F80500C4EBC4001044B0F83F
:104A500003102046FFF746FD2146012000F0F4FA3E
:104A60000021204600F0E0FA674800F815500220C7
:104A7000654901EB450148705AE104EB44005E4989
:104A80000C54C4EBC4005D490C540320C4EBC401B6
:104A90005A4A114448700120C4EBC4011144887083
:104AA0005A4830F8140004EB4401534A1144A1F869
:104AB0000100C4EBC401514A1144A1F8030051485C
:104AC00030F81400C4EBC4011144A1F80500C4EB94
:104AD000C4001044B0F803102046FFF703FD214640
:104AE000012000F0B1FA0121204600F09DFA601C7F
:104AF000C4B204EB440040490C54C4EBC4003F4929
:104B00000C540320C4EBC4013C4A114448700120FA
:104B1000C4EBC401114488703C4830F8140004EB25
:104B20004401354A1144A1F80100C4EBC401334AE1
:104B30001144A1F80300334830F81400C4EBC40159
:104B40001144A1F80500C4EBC4001044B0F80310F0
:104B50002046FFF7C7FC2146012000F075FA01212D
:104B6000204600F061FA4FF4FA6000F0E1FB611EAC
:104B7000C8B2002100F058FA0021601EC0EBC0004E
:104B80001E4A10448170A4F10900C4B2224620A13B
:104B90002848FBF7CBFC274802F00EFC04EB44004E
:104BA00015490C54C4EBC40014490C540320C4EB45
:104BB000C401124A114448700120C4EBC4011144DD
:104BC0008870124830F8140004EB44010A4A11447A
:104BD000A1F8010030E00000202D2D3E696E6974BF
:104BE0005F736572766F5F6D6F746F72730A0D001D
:104BF000080200208E0F0020B00C0020400C002086
:104C0000F8110020480100202C000020D8110020BD
:104C1000696E697420736572766F20312C20696E1D
:104C2000646578203D202564200A0D202D2D2D203F
:104C30000A0D0000220D0020C4EBC4013F4A1144BC
:104C4000A1F803003E4830F81400C4EBC40111443D
:104C5000A1F80500C4EBC4001044B0F803102046CE
:104C6000FFF740FC2146012000F0EEF9012120462B
:104C700000F0DAF9601CC4B204EB440031490C5472
:104C8000C4EBC4002D490C540320C4EBC4012B4ACF
:104C9000114448700120C4EBC401114488702A48B3
:104CA00030F8140004EB4401264A1144A1F8010035
:104CB000C4EBC401214A1144A1F80300204830F894
:104CC0001400C4EBC4011144A1F80500C4EBC400F6
:104CD0001044B0F803102046FFF704FC21460120E1
:104CE00000F0B2F90121204600F09EF94FF47A70ED
:104CF00000F01EFB0021204600F096F90020C4EBD6
:104D0000C4010E4A11448870611EC8B2002100F02F
:104D10008BF90021601EC0EBC000084A104481706E
:104D20000A4800F815500320084901EB4501487076
:104D3000681CC5B2042DFFF665AD70BD400C0020A7
:104D400048010020B00C0020D81100202C000020C9
:104D50000EB5802200B109B110460AE001780129A0
:104D6000FAD101A900F020F8042801D0002000E0C9
:104D70001020DDE9011203B000BD70B50D4604003E
:104D800003D012B92078012801D0802070BD2046C0
:104D900001F0D4FD28B12946204600F030F800206B
:104DA00070BD812070BD000010B5044680890028C8
:104DB00024D0608904EB800000690860606840B11D
:104DC0006078022805D10021204601F0B3FF01F0F0
:104DD000A1FF04F10C0000BFD0E85F1F491E8AB29A
:104DE000C0E8512F0029F7D16089401C80B2608152
:104DF000E189884201D100206081042010BD10B5F6
:104E000001F098FFBDE8104001F084BF10B588B0F4
:104E100000202D4908702D4908702D4908702D4932
:104E200008702D4908702D4908702D49C870887088
:104E30004870087003222BA12B48FBF724FDFFF7D5
:104E4000DBFB2A4800782949491E09784140274858
:104E5000801C0078254A521C127842402348001DCD
:104E60000078224BDB1C1B7843402048801D0078D3
:104E70001E4C641D24786040CDE9013203910090FE
:104E80001A48083000781949C91D097880EA0103D9
:104E900016480A30007815490931097880EA01027C
:104EA00013A104A8FBF742FB0C2204A90E48801DA5
:104EB000FBF7E9FC15A002F07FFA012219491A4814
:104EC000FDF732FC08B010BD0100002000000020FA
:104ED000020000200500002006000020070000203E
:104EE00045000020312E31008F0F0020117AFF1F66
:104EF0002530325825303258253032582530325836
:104F00002530325825303258000000006D6163684A
:104F1000696E6520696E6974206973204F4B0A0DB4
:104F200000000000440000208801002088B02B48C9
:104F3000D0E901320168C068CDE9053204910790DB
:104F4000264B1033D3E90012D3E90203CDE9020363
:104F5000CDE9001200F0F8F9FCF71EFCFEF71EF890
:104F6000FEF768F8FFF7CEFB02F0D4FB02F098FBE7
:104F7000FDF740FFFDF7DCFFFDF72AFDFDF7EAFC3A
:104F800017A002F019FA10221E491F48FCF752F828
:104F9000002104A800F02CFA0021684600F028FA4D
:104FA00000F0E4F94FF4FA7000F0C2F917A002F033
:104FB00003FAFFF72BFF10E019480078012804D10D
:104FC00000F086FF002016490870FDF7DFFC154849
:104FD0000078012801D1FEF7E9FDEDE7B07B040878
:104FE0004170706C69636174696F6E20496E697499
:104FF000207379737465616D20646F6E65200A0D8E
:105000000000000068010020A00000204170706CCA
:1050100069636174696F6E205F5F5F200A0D000035
:10502000000000200500002070B504460D46054A2A
:1050300002EBC4029188034A52F834002A46FCF776
:105040009FFB70BD707D040870B505460C46102CA2
:1050500072D2DFE804F0081D32475C72879CB1C64B
:10506000DBF5F3F2F1F04DB904EB4400AA4A02EB90
:1050700080008168A948FDF7A9F908E004EB440025
:10508000A54A02EB80008168A448FDF779F941E167
:105090004DB904EB4400A04A02EB800081689F48B0
:1050A000FDF794F908E004EB44009B4A02EB800012
:1050B00081689A48FDF764F92CE14DB904EB44008E
:1050C000954A02EB800081689548FDF77FF908E07A
:1050D00004EB4400904A02EB800081689048FDF7A1
:1050E0004FF917E14DB904EB44008B4A02EB800005
:1050F00081688B48FDF76AF908E004EB4400864AB2
:1051000002EB800081688648FDF73AF902E14DB96B
:1051100004EB4400804A02EB800081688148FDF77F
:1051200055F908E004EB44007B4A02EB80008168FB
:105130007C48FDF725F9EDE0EBE04DB904EB4400C8
:10514000754A02EB800081687648FDF73FF908E078
:1051500004EB4400704A02EB800081687148FDF75F
:105160000FF9D7E04DB904EB44006B4A02EB800025
:1051700081686A48FDF72AF908E004EB4400664AB2
:1051800002EB800081686548FDF7FAF8C2E04DB98E
:1051900004EB4400604A02EB800081685F48FDF741
:1051A00015F908E004EB44005B4A02EB80008168DB
:1051B0005A48FDF7E5F8ADE04DB904EB4400564A16
:1051C00002EB800081685848FDF700F908E004EB25
:1051D0004400514A02EB800081685348FDF7D0F843
:1051E00098E04DB904EB44004B4A02EB8000816823
:1051F0004D48FDF7EBF808E004EB4400464A02EBAB
:10520000800081684848FDF7BBF883E04DB904EBA6
:105210004400414A02EB800081684348FDF7D6F81C
:1052200008E004EB44003C4A02EB800081683E4801
:10523000FDF7A6F86EE057E041E02BE015E0FFE750
:105240004DB904EB4400344A02EB800081683648D3
:10525000FDF7BCF808E004EB44002F4A02EB8000A5
:1052600081683148FDF78CF854E04DB904EB4400F7
:10527000294A02EB800081682C48FDF7A7F808E076
:1052800004EB4400244A02EB800081682748FDF7C4
:1052900077F83FE04DB904EB44001F4A02EB800071
:1052A00081682248FDF792F808E004EB44001A4AAE
:1052B00002EB800081681D48FDF762F82AE04DB9D5
:1052C00004EB4400144A02EB800081681548FDF7A6
:1052D0007DF808E004EB44000F4A02EB800081688F
:1052E0001048FDF74DF815E04DB904EB44000A4AAB
:1052F00002EB800081680B48FDF768F808E004EBDA
:105300004400054A02EB800081680648FDF738F842
:1053100000E000BF00BF70BDB07C0408AC100020EE
:10532000E810002024110020601100209C110020B2
:10533000EFF3058109B182207047DFF808C000DF74
:1053400070470000FD730408EFF3058008B1822068
:105350007047EFF31480C00703D0DFF80CC000DF04
:10536000704702F055B800001174040888B0EFF3DC
:10537000058010B1822008B07047EFF3148010F060
:105380000301134806D001291BD0022911D003299B
:1053900019D113E008A981F309880078C0070BD060
:1053A0005FF0020080F31488BFF34F8FBFF36F8F5D
:1053B00009E00078C00706D10320F3E70078C007B2
:1053C00001D0FF20D7E7DFF80CC000DFD3E70000F3
:1053D000087E040881740408EFF305820AB1FFF720
:1053E000B7BCDFF808C000DF70470000ED740408A8
:1053F000EFF305820AB100207047EFF31482D20761
:1054000002D1044A52781AB1DFF80CC000DF7047AD
:1054100002F08AB87800002029750408DFF80CC073
:1054200000DFDFF80CC000DFFEE700009575040820
:10543000B1750408DFF804C000DF7047E97504089F
:10544000094C4FF0FF3529462068FFF7C5FF02469B
:105450000846102AF7D1FFF7EDFF0028F3D00246E7
:1054600008469047EFE7000058000020012806D0CA
:10547000022805D0032804D0042804D102E003E068
:1054800002E001E000E000BF00BF00BFFEE700BF98
:10549000FEE70000074801684FF0E020416100216D
:1054A0008161072101610448016841F07F41016089
:1054B00040177047047E040820ED00E070470000AC
:1054C00014480078C0EBC0001349084440781149E3
:1054D000487008460078C0EBC0000F490844807847
:1054E0000C49887008460078C0EBC0000A4908449F
:1054F000B0F803000749A1F8030008460078C0EBA4
:10550000C00005490844B0F805000249A1F80500AB
:105510007047000020000020400C002010B5164805
:10552000C07C012803D115A001F046FF02E01EA0B7
:1055300001F042FF1048007D012803D125A001F0B1
:105540003BFF02E02EA001F037FF0B48407D012811
:1055500003D136A001F030FF02E03FA001F02CFFA4
:105560000548807D012803D146A001F025FF02E017
:105570004FA001F021FF10BD8E0F0020477269700F
:10558000706572735F696E666F722E677269707094
:1055900065725F4E6F31203D20484156455F50484F
:1055A0004F4E455F200A0D00477269707065727337
:1055B0005F696E666F722E677269707065725F4E9A
:1055C0006F31203D204E4F5F50484F4E455F200ABF
:1055D0000D00000047726970706572735F696E66D6
:1055E0006F722E677269707065725F4E6F32203D08
:1055F00020484156455F50484F4E455F200A0D00F8
:1056000047726970706572735F696E666F722E673C
:105610007269707065725F4E6F32203D204E4F5F31
:1056200050484F4E455F200A0D00000047726970D8
:10563000706572735F696E666F722E6772697070E3
:1056400065725F4E6F33203D20484156455F50489C
:105650004F4E455F200A0D00477269707065727386
:105660005F696E666F722E677269707065725F4EE9
:105670006F33203D204E4F5F50484F4E455F200A0C
:105680000D00000047726970706572735F696E6625
:105690006F722E677269707065725F4E6F34203D55
:1056A00020484156455F50484F4E455F200A0D0047
:1056B00047726970706572735F696E666F722E678C
:1056C0007269707065725F4E6F34203D204E4F5F7F
:1056D00050484F4E455F200A0D00000010B50024D1
:1056E000C8E0FE4830F81400C4EBC401FC4A114481
:1056F000A1F80500FB48005D002814D0F948005DC2
:10570000012811D101212046FFF78EFC0220F54926
:1057100008550120C4EBC401F14A11448870C4EB60
:10572000C40111444870A3E0EE48005D02287DD119
:10573000C4EBC400EA490844B0F8030004EB440198
:10574000E94A1144B1F80110884216DA04EB44002A
:1057500011460844B0F80100C4EBC401E04A11440A
:10576000A1F803000320E1490855C4EBC40010442C
:10577000B0F803102046FEF7B5FEC4EBC400D849CC
:105780000844B0F8030004EB4401D74A1144B1F8CF
:105790000110884216DD04EB440011460844B0F8BD
:1057A0000100C4EBC401CE4A1144A1F80300022059
:1057B000CE490855C4EBC4001044B0F8031020468D
:1057C000FEF790FEC4EBC400C5490844B0F80500DC
:1057D00040F63401884210DB0320C2490855C4EB6F
:1057E000C400BF490844B0F80520C1A1C748FAF772
:1057F0009DFEC64801F0E0FD14E0C4EBC400B849CA
:105800000844B0F80520C2A1C048FAF78FFEBF488F
:1058100001F0D2FD0220B3490855C348005D401C89
:10582000C1490855C048005D162800E00BE01FDBA9
:10583000BEA1B648FAF77AFEB44801F0BDFD0320D8
:10584000A849085514E00020C4EBC401A44A11443F
:105850008870A648005DC4EBC40111444870002163
:105860002046FFF7E1FB0020AF4908559D49085548
:10587000601CC4B2082CFFF634AF08242DE1974811
:1058800030F81400C4EBC401954A1144A1F8050096
:105890009448005D002814D09248005D012811D181
:1058A00001212046FFF7C0FB02208E490855012048
:1058B000C4EBC4018A4A11448870C4EBC40111448A
:1058C000487008E18748005D022878D1C4EBC40025
:1058D00083490844B0F8030004EB4401824A1144B0
:1058E000B1F80110884277DDC4EBC4007C4908445C
:1058F000B0F803001238C4EBC401794A1144A1F88E
:105900000300C4EBC40011460844B0F8030004EBE4
:105910004401754A1144B1F80110884210DC04EBCF
:10592000440011460844B0F80100C4EBC4016C4ABD
:105930001144A1F803000220C4EBC40111444870D3
:10594000C4EBC400664A1044B0F803102046FEF7CA
:10595000C9FDC4EBC40062490844B0F80500B0F5C5
:10596000E16F16DB03205F4908550220C4EBC40138
:105970005B4A11444870C4EBC40011460844B0F8B7
:10598000052074A16148FAF7D1FD604801F014FDCB
:10599000A1E0C4EBC40052490844B0F805302246E7
:1059A00075A15A48FAF7C2FD584801F005FDC4EB4D
:1059B000C4004B490844B0F80330224601E07DE0C2
:1059C0000AE075A15148FAF7B1FD504801F0F4FC26
:1059D0000220444908557EE0C4EBC4004049084415
:1059E000B0F8030004EB44013F4A1144B1F8011040
:1059F000884254DAC4EBC40039490844B0F80300C3
:105A00001C30C4EBC401364A1144A1F80300C4EBB6
:105A1000C40011460844B0F8030004EB4401324AC4
:105A20001144B1F80110884210DB04EB4400114628
:105A30000844B0F80100C4EBC401294A1144A1F89C
:105A400003000320C4EBC40111444870C4EBC4003C
:105A5000234A1044B0F803102046FEF743FDC4EB80
:105A6000C4001F490844B0F80530224652A1274817
:105A7000FAF75CFD254801F09FFCC4EBC40018490F
:105A80000844B0F80330224654A12048FAF74EFDEE
:105A90001E4801F091FC0220124908551BE003202A
:105AA00010490855C4EBC4000D490A5C53A11748BE
:105AB000FAF73CFD154801F07FFC0CE00020C4EB38
:105AC000C401074A1144887000212046FFF7ACFA50
:105AD000002004490855A01CC4B29DE048010020E4
