:020000040804EE
:1000000058670020FD030408F54004081B35040868
:10001000F1400408D90F0408094F0408000000004B
:10002000000000000000000000000000CD020408F5
:10003000F71004080000000085030408E903040821
:100040001704040817040408170404081704040814
:100050001704040817040408170404081704040804
:1000600017040408170404081704040817040408F4
:1000700017040408170404081704040817040408E4
:1000800017040408170404081704040817040408D4
:1000900017040408170404081704040817040408C4
:1000A00017040408170404081704040817040408B4
:1000B00017040408170404081704040817040408A4
:1000C0001704040817040408170404081704040894
:1000D00017040408454C040817040408170404080E
:1000E0001704040817040408170404081704040874
:1000F0001704040817040408170404081704040864
:100100001704040817040408170404081704040853
:1001100017040408694704081704040817040408AE
:10012000DD0F040817040408170404081704040862
:100130001704040817040408170404081704040823
:100140001704040817040408170404081704040813
:100150001704040817040408170404081704040803
:1001600017040408170404081704040817040408F3
:10017000170404081704040817040408000000000A
:10018000170404081704040800F002F800F048F807
:100190000AA090E8000C82448344AAF10107DA45E2
:1001A00001D100F03DF8AFF2090EBAE80F0013F0EC
:1001B000010F18BFFB1A43F0010318479C9500007C
:1001C000BC950000103A24BF78C878C1FAD852070D
:1001D00024BF30C830C144BF04680C6070470000C1
:1001E0000023002400250026103A28BF78C1FBD840
:1001F000520728BF30C148BF0B607047642900F028
:100200002382782900F05C82002070471FB508F037
:10021000D3FE9DE8030000F01CFC1FBD10B510BD0F
:1002200000F061FD1146FFF7F1FF0FB400F00CF88C
:100230000FBC06F09BFA00F00BFB03B4FFF7EEFFD8
:1002400003BC00F049FD000004B006F0C3FC044804
:10025000002106F013FD06F0CFFC00F0F9FA0000D3
:10026000EC96040880F309887047EFF30980704723
:10027000684680F3098804480078C00714BF02204C
:10028000032080F314887047AC960408DFF818C088
:10029000EFF305831B0618BF6047EFF31483DB07FA
:1002A00008BF604700DF7047397D0408DFF818C0D9
:1002B000EFF305831B0618BF6047EFF31483DB07DA
:1002C00008BF604700DF70471D7F0408EFF3098017
:1002D000816911F8021CE1BB90E80F1010B5E047EE
:1002E000BDE81040EFF3098C8CE80700214B93E840
:1002F0000600914208BF704741B91EF0100F16D199
:100300001D49086820F00100086010E01EF0100F81
:1003100006BF2CED108A0120002081F825002CE971
:10032000F00FC1F828C00CB408F0AAF90CBC1A6090
:10033000D2F828C0BCE8F00F92F8250000280EBFC4
:100340006FF0020E6FF0120EBCEC108A8CF309886D
:10035000704710B5094A1268914209D8084C54F800
:10036000214090E80F10A047EFF3098C8CE80F00B4
:1003700010BD0000A400002034EF00E0CC0D040804
:10038000CC0D040810B508F03FF8BDE81040154B3F
:1003900093E80600914208BF7047EFF3098C1EF006
:1003A000100F06BF2CED108A0120002081F82500D7
:1003B0002CE9F00FC1F828C00CB408F061F90CBCAE
:1003C0001A60D2F828C0BCE8F00F92F82500002887
:1003D0000EBF6FF0020E6FF0120EBCEC108A8CF3A1
:1003E00009887047A400002010B508F011FACCE786
:1003F00010B506F0DDFC08F00BFAC6E709488047A7
:1004000009480047FEE7FEE7FEE7FEE7FEE7FEE7F6
:10041000FEE7FEE7FEE7FEE704480549054A064B0E
:100420007047000051440408890104085861002005
:100430005867002058630020586300200048704728
:10044000F86000200B3020F0070070472DE9F041E4
:1004500017460E460446FFF7F5FFA042054633D97E
:10046000002F1CBF06F10C0004F096FD30467468A6
:10047000F4B12168A94217D305F1080291423CBFAB
:100480006168416007D3626861194A602268521B43
:100490000A6041602560002F1CBF06F10C0004F0CB
:1004A000A1FD201DBDE8F08120466468002CE0D14C
:1004B0002946304600F0B9FA0028D7D1002F1CBFDA
:1004C00006F10C0004F08EFD0020BDE8F08110B5AF
:1004D000044600F0A1FA01682046BDE81040012260
:1004E000B4E753EA020C00F069802DE9F04B4FF0BD
:1004F0000006002B1FBFB3FA83F503FA05F424FAB4
:1005000005F65E4012BF1643B2FA82F502FA05F410
:10051000C5F120051EBF22FA05FC44EA0C04203573
:1005200056EA044C4FEA144418BF641C4FF000080C
:100530004FF00009904271EB030C39D3002919BF29
:10054000B1FA81F701FA07F6B0FA80F700FA07F678
:10055000C7F120071EBF20FA07FC46EA0C06203729
:10056000B6FBF4FCA7EB0507103F07F01F0BCBF120
:1005700020060CFA0BFB2CFA06F644BFB346002605
:10058000202FA4BF5E464FF0000B5BEA060C08BFAD
:100590004FF0010B19EB0B09ABFB027C48EB060893
:1005A000C01B06FB02CC0BFB03CC71EB0C01C1E7BB
:1005B0000B46024641464846BDE8F08B13B54FF066
:1005C00000004FF00001AFF30080BDE81C40704711
:1005D0000FB41CB5074B06AA7B44694600900598EA
:1005E00000F009FB0020694600F018FB1CBC5DF818
:1005F00014FB00004106000070B5044685690068E0
:10060000C10601D5302600E02026C00707D070BD06
:10061000D4E9012130469047206A401C20626D1EBB
:10062000F6D570BD70B5044685690078C00707D15E
:1006300070BDD4E9012120209047206A401C20622F
:100640006D1EF6D570BD00002DE9F0410646002470
:1006500010687529314616A510D0AFF30080002828
:1006600002DA404213A507E031688A0701D512A5D6
:1006700002E0490704D511A5012401E0AFF3008091
:1006800000210A2206F1240709E0B0FBF2FCB0FBCE
:10069000F2F302FB1C00303078541846491C002845
:1006A000F3D123462A463046BDE8F04100F044BA73
:1006B000000000002D0000002B00000020000000C2
:1006C00070B504460D4621461068AFF300802188BE
:1006D000090502D50F4A7A4402E00E4A7A440E32E6
:1006E000002104F1240305E000F00F060009965DE7
:1006F0005E54491C0028F7D120780023000704D558
:10070000702D02D009B1022311322046BDE870409D
:1007100000F012BA429000002DE9F05F89460446CD
:100720004FF0000ADFF824B1FB44C0F820A02046B7
:10073000E168884700287DD0252806D0D4E901212A
:100740009047206A401C2062F1E700255F46204662
:10075000E16888472028064607DB312E05D2B81904
:1007600010F8200C08B10543F1E7A80701D525F0E2
:100770000405C4F81CA00027C4F818A02A2E09D02C
:10078000304604F002FC38B304EB8708303EC8F86A
:10079000186019E059F8041B204604EB87029161A8
:1007A000E1688847012F064618D1E069002820DA61
:1007B00025F020051DE0D8F8180000EB800006EBBE
:1007C00040003038C8F818002046E16888470646DF
:1007D00004F0DBFB0028EED1012F0AD02E2E08D129
:1007E0002046E16888477F1C0646022F45F0200519
:1007F000C4DBA069002803DA404245F00105A0618E
:10080000E80701D025F01005A6B1A6F1410019288E
:1008100002D8203645F400654A4631462046256018
:100820004D46FFF7EBFC60B1012807D0ED1D25F028
:10083000070000E007E000F1080978E705F1040986
:1008400075E730467AE7206ABDE8F09F189000000F
:1008500010B50446AFF300802046BDE81040FFF716
:10086000ECBC10B5431C02E010F8011B71B181070C
:10087000FAD14FF0013202C88C1A8C4314EAC2112B
:10088000F9D0C01A0A0603D0C01E10BDC01A10BD90
:100890000A0401D0801E10BD0902FCD0401E10BD0C
:1008A000032A40F2308010F0030C00F0158011F89C
:1008B000013BBCF1020F624498BF11F801CB00F874
:1008C000013B38BF11F8013BA2F1040298BF00F8C8
:1008D00001CB38BF00F8013B11F0030300F0A38106
:1008E000083AC0F0088051F8043B083A51F804CBAC
:1008F000A0E80810F5E7121D5CBF51F8043B40F872
:10090000043BAFF30080D20724BF11F8013B11F87C
:1009100001CB48BF11F8012B24BF00F8013B00F8C0
:1009200001CB48BF00F8012B70474FF000020429AB
:10093000C0F0128010F0030C00F01B80CCF1040C0E
:10094000BCF1020F18BF00F8012BA8BF20F8022B42
:10095000A1EB0C0100F00DB85FEAC17C24BF00F8E8
:10096000012B00F8012B48BF00F8012B70474FF016
:10097000000200B5134694469646203922BFA0E8EF
:100980000C50A0E80C50B1F12001BFF4F7AF0907FB
:1009900028BFA0E80C5048BF0CC05DF804EB8900EC
:1009A00028BF40F8042B08BF704748BF20F8022B2F
:1009B00011F0804F18BF00F8012B704710B50446A6
:1009C00010F0030F08BF11F0030F40F015804FF037
:1009D000013E121FC0F20E8051F8043BA3EB0E0C37
:1009E0002CEA030C1CEACE1C08BF40F8043BF0D0F4
:1009F000A1F1040102F10402521E08DB11F8013BCF
:100A0000002B00F8013BF7D11146FFF78EFF20467F
:100A100010BD70477047704710B5FFF70FFD0830E5
:100A200010BD704770477047704738B504460A4696
:100A300000206946AFF30080002808BF38BD024699
:100A40000099204600F021F9012038BD012000F076
:100A50003BB9F8B5AFF30080054600200C461020E6
:100A600000BF0646A819A0420DD9324669460020AB
:100A7000AFF30080070008BF00F026F90098A042FD
:100A800018BF0546C419FFF7C7FF05600746F01DEC
:100A900020F007004619284600F00AF8B44208BFC3
:100AA000F8BDA21B31463868BDE8F84000F0EDB84B
:100AB00000210160C0E901100C3004F07DBA102063
:100AC000704770B516460D46041F002808BF70BD5C
:100AD000002E1CBF05F10C0004F05EFA2B4658688E
:100AE000002818BFA04238BF0346F8D31968CA18B7
:100AF000A24218BF5C6003D122681C4611441960F1
:100B000021680A19824218BF606004D1426862609D
:100B1000006808442060002E1CBF05F10C0004F0A2
:100B200061FA70BD10B50446FFF776FF01682046F4
:100B3000BDE810400122C4E72DE9F0470D46994673
:100B40009246044600F124080168880604D5E0694D
:100B500021F01001216000E00120A84201DD471BC7
:100B600000E00027A1697A1902EB0900081AA061C8
:100B70002078C00602D42046FFF73EFD002608E09C
:100B8000D4E901211AF806009047206A401C761C1F
:100B900020624E45F4DB2078C0060AD52046FFF7D8
:100BA0002BFD06E0D4E9012130209047206A401C4B
:100BB0002062381EA7F10107F4DC07E0D4E9012127
:100BC00018F805009047206A401C2062281EA5F1F5
:100BD0000105F3DC2046FFF725FD2078000602D54D
:100BE0000220BDE8F0870120FBE7000001694A1CF4
:100BF00002610878704700B58FB0CDE9013100215E
:100C0000059105497944CDE9031011466846FFF77F
:100C100083FD0FB000BD0000E5FFFFFF0A6802F88A
:100C2000010B0A60704710B5203AC0F00B80B1E8A4
:100C30001850203AA0E81850B1E81850A0E8185011
:100C4000BFF4F5AF5FEA027C24BFB1E81850A0E81A
:100C5000185044BF18C918C0BDE810405FEA827C34
:100C600024BF51F8043B40F8043B08BF7047D2074B
:100C700028BF31F8023B48BF11F8012B28BF20F8EC
:100C8000023B48BF00F8012B704730B404468C4645
:100C90004368002B18BF634538BF1846F8D3036874
:100CA0001844604507D0C81C20F0070000F1040C70
:100CB000ACEB0100121A2146CCF8002030BC002217
:100CC0000CF10400FFF7FDBE10B500F037F8BDE8E9
:100CD000104000F02DB8000001491820ABBEFEE71F
:100CE0002600020070477546FFF7A8FBAE460500D8
:100CF0006946534620F00700854618B020B5FFF737
:100D00008BFBBDE820404FF000064FF000074FF08E
:100D100000084FF0000B21F00701AC46ACE8C00919
:100D2000ACE8C009ACE8C009ACE8C0098D46704722
:100D3000002801D0FFF7D0BF7047000010B5012890
:100D400005D0002103A000F021F8012010BD09A169
:100D5000F8E7000053494752544D454D3A204F752E
:100D600074206F662068656170206D656D6F7279A3
:100D7000000000003A2048656170206D656D6F725B
:100D80007920636F727275707465640070B5054682
:100D90000C460A2000E06D1C00F011F835B12878EF
:100DA0000028F8D102E0641C00F009F814B12078A2
:100DB0000028F8D1BDE870400A20AFF3008008B5E4
:100DC00069468DF800000320ABBE08BD000000009E
:100DD00070B50546AC6B206C00F0500050BB206C29
:100DE00040F4007020642068806800F04050E8B94A
:100DF000207ED8B92068C06A00F4700020B1206855
:100E0000806800F4806088B92068406820F0200085
:100E100021684860206C20F480702064206C00F40D
:100E2000805018B9206C40F001002064204600F08A
:100E300029FA0BE0206C00F0100018B1204600F0F9
:100E400023FA03E0A06BC16C2846884770BD70B5DB
:100E50000546AC6B40202064606C40F00400606488
:100E6000204600F011FA70BD70B50446A56B284607
:100E700000F009FA70BD000055494A6822F440327A
:100E80004A604A6843681A434A600268526822F41A
:100E9000807203685A6002685368026943EA02225A
:100EA00003685A600268526822F0407203685A6010
:100EB0000268526883681A4303685A60026892683D
:100EC00022F4006203689A6002689268C3681A4359
:100ED00003689A603F4B826A9A4218D0026892680F
:100EE00022F0706203689A6002689268836A1A430B
:100EF00003689A600268926822F0405203689A6020
:100F000002689268C36A1A4303689A600BE0026839
:100F1000926822F0706203689A600268926822F018
:100F2000405203689A600268926822F002020368E5
:100F30009A6002689368027E43EA420203689A60FC
:100F40002022125CA2B10268526842F40062036877
:100F50005A600268526822F4604203685A6002686C
:100F60005368426A521E43EA423203685A6005E0FF
:100F70000268526822F4006203685A600268D26A0A
:100F800022F470020368DA620268D36A828B521E0E
:100F900043EA02520368DA620268926822F400723D
:100FA00003689A600268936890F8302043EA42220E
:100FB00003689A600268926822F4806203689A600B
:100FC00002689368426943EA822203689A60704724
:100FD000002301400100000F00BFFEE710B50248EA
:100FE00000F060FA10BD00000C01002001460878F6
:100FF00010381823B0FBF3F20848805CC865032A58
:1010000005D908686FF30900001D886503E00868CA
:101010006FF309008865886D70470000FC9604082E
:10102000014600208A6A8B69CBB932B1012A0DD002
:10103000022A03D0032A10D10EE000BFCB6A03F0CE
:101040008073B3F1807F00D1012007E0CB6AB3F158
:10105000C07F00D1012001E000E000BF34E08B69D7
:10106000B3F5005F1AD132B1012A07D0022A03D0AA
:10107000032A11D10AE000BF01200EE0CB6A03F081
:101080008073B3F1807F00D1012006E0CB6AB3F119
:10109000C07F00D1012000E000BF15E032B1012A7D
:1010A00005D0022A04D0032A0CD103E000BF00BF00
:1010B000012008E0CB6A03F08073B3F1807F00D198
:1010C000012000E000BF00BF704730B5046824680D
:1010D00024F4802405682C60046863608468402CD4
:1010E00004D10468A2600468E16003E00468A160C0
:1010F0000468E26030BD704738B5024600200090B9
:1011000000BF92F83C00012801D1022038BD012027
:1011100082F83C0000BF0868092816D91068C0682A
:101120000C780A3C04EB44050724AC40A043146847
:10113000E0600C780A3C04EB44048868A040146822
:10114000E46820431468E06013E0106800690C78DC
:1011500004EB44050724AC40A043146820610C78DC
:1011600004EB44048868A040146824692043146890
:1011700020614868072817D21068406B0C79641EFC
:1011800004EB84051F24AC40A04314686063088806
:1011900080B20C79641E04EB8404A0401468646B74
:1011A00020431468606331E048680D2817D2106846
:1011B000006B0C79E41F04EB84051F24AC40A043B2
:1011C00014682063088880B20C79E41F04EB84045F
:1011D000A0401468246B20431468206316E0106854
:1011E000C06A0C790D3C04EB84051F24AC40A0437D
:1011F0001468E062088880B20C790D3C04EB84042A
:10120000A0401468E46A20431468E062194B1A4C49
:101210001068A04206D10868122803D1586840F42B
:1012200080005860144C1068A0421CD10868102837
:1012300002D00868112816D1586840F400005860A0
:10124000086810280FD10D4800680D4CB0FBF4F071
:1012500000EB80004000009002E00098401E0090EB
:1012600000980028F9D100BF002082F83C0000BFA0
:1012700000BF4BE700230140002001409800002000
:1012800040420F00704770477047000070B5044639
:1012900000250CB9012070BD1549A06A884200D014
:1012A00000BF206C30B9204600F024F800206064B4
:1012B00084F83C00206C00F0100088B9206C20F409
:1012C000885040F0020020642046FFF7D5FD002042
:1012D0006064206C20F0020040F00100206400E017
:1012E000012500BF002084F83C0000BF2846D2E75B
:1012F0000100000F70470000F8B504460D46164681
:101300000020009000BF94F83C00012801D1022089
:10131000F8BD012084F83C0000BF2068806800F020
:101320000100A0B92068806840F001002168886051
:10133000494800684949B0FBF1F000EB40000090DB
:1013400002E00098401E009000980028F9D1206823
:10135000806800F0010000287CD0206C40F2016120
:10136000884340F4807020642068406800F4806006
:1013700028B1206C20F4005040F480502064206C90
:1013800000F48050B0F5805F04D1606C20F006005E
:10139000606401E00020606400BF002084F83C002D
:1013A00000BF2F4F2F48A16BC8632F48A16B086463
:1013B0002E48A16BC8646FF0220021680860206885
:1013C000406840F08060216848602068806840F490
:1013D000807021688860226802F14C0133462A46F9
:1013E000A06B00F0F5F9786800F01F0018BB2049E9
:1013F0002068884213D01F492068884204D1381DD4
:10140000006800F01F0050B11B492068884221D1BC
:101410001348001D006800F01F0010281AD2206831
:10142000806800F0405028B92068806840F0804013
:10143000216888600EE00E49206888420AD1206841
:10144000806800F0405028B92068806840F08040F3
:101450002168886000205BE79800002040420F0070
:1014600000230140D10D0408690E04084F0E040842
:10147000002001400021014000220140014691F876
:101480003500022803D080204865012070470520E0
:1014900081F835000868006820F001000A681060D3
:1014A0000020F3E7F8B50446002000908C4800685F
:1014B0004FF41651B0FBF1F7A56D2E6894F85C104F
:1014C00008208840304098B12068006800F004008F
:1014D00070B12068006820F004002168086094F86A
:1014E0005C1008208840A860606D40F001006065D5
:1014F00094F85C1001208840304068B12068406951
:1015000000F0800040B194F85C1001208840A86091
:10151000606D40F00200606594F85C100420884023
:10152000304068B12068006800F0020040B194F8D3
:101530005C1004208840A860606D40F00400606585
:1015400094F85C1010208840304078B32068006820
:1015500000F0080050B394F85C1010208840A86098
:101560002068006800F4802080B12068006800F4E2
:10157000002028B9206CC8B12046216C884715E0AE
:10158000A06C98B12046A16C88470FE020680068E5
:1015900000F4807028B92068006820F008002168F5
:1015A0000860206C10B12046216C884794F85C10CC
:1015B000202088403040002865D02068006800F076
:1015C000100000285FD094F85C1020208840A860AC
:1015D00094F83500052828D12068006820F016000E
:1015E000216808602068406920F080002168486117
:1015F000206C08B9A06C28B12068006820F00800B1
:101600002168086094F85C103F208840A86000BF03
:10161000002084F8340000BF012084F83500206DDC
:1016200010B12046216D8847F8BD2068006800F49D
:10163000802080B12068006800F4002028B9606C28
:1016400010B12046616C88471DE0E06BD8B12046A0
:10165000E16B884717E02068006800F4807068B983
:101660002068006820F010002168086000BF00209A
:1016700084F8340000BF012084F83500E06B10B11D
:101680002046E16B8847606D38B3606D00F0010063
:10169000F0B1052084F835002068006820F00100D2
:1016A0002168086000BF0098401C0090B84200D933
:1016B00005E02068006800F001000028F3D100BFB9
:1016C00000BF002084F8340000BF012084F83500FA
:1016D000E06C10B12046E16C884700BFA4E7000031
:1016E000980000202DE9F0410446002500F0CEF9D5
:1016F000074614B90120BDE8F081606A00B100BF5F
:1017000000BF002084F8340000BF022084F83500B8
:101710002068006820F00100216808600AE000F0FD
:10172000B5F9C01B052805D920206065032084F881
:101730003500E0E72068006800F001000028EED1E5
:101740002068056821480540D4E901010843E168A3
:1017500008432169084361690843A1690843E169B5
:101760000843216A08430543606A042803D1D4E989
:101770000B0108430543206805602068456925F092
:101780000705606A0543606A04280DD1A06A054315
:10179000E06A48B12046FFF743FC28B1402060656D
:1017A000012084F83500A6E7206845612046FFF750
:1017B0001DFC064694F85C103F208840B060002075
:1017C0006065012084F83500002094E73F8010F028
:1017D0002DE9F04704460D4616461F464FF0000817
:1017E000D4F8589000BF94F83400012802D10220A8
:1017F000BDE8F087012084F8340000BF94F835007C
:1018000001282BD1022084F83500002060653B467A
:10181000324629462046FFF758FC94F85C103F20DA
:101820008840C9F808002068006840F01600216868
:1018300008602068406940F0800021684861206CA1
:1018400028B12068006840F008002168086020681E
:10185000006840F001002168086006E000BF002039
:1018600084F8340000BF4FF002084046C0E7000093
:10187000F8B502460B460025002400200021DCE0DC
:10188000012606FA01F51E6806EA0504AC4273D18A
:101890005E68022E02D05E68122E13D1CF0802F1CC
:1018A000200656F827004E07F70E0F26BE40B0431D
:1018B0004F07FF0E1E69BE403043CF0802F12006DD
:1018C00046F8270010684F000326BE40B0431E793B
:1018D00006F003064F00BE40304310605E68012EE4
:1018E00008D05E68022E05D05E68112E02D05E68B8
:1018F000122E13D190684F000326BE40B0434F0014
:10190000DE68BE4030439060506801268E40B04390
:101910001E79C6F300168E4030435060D0684F00E9
:101920000326BE40B0434F009E68BE403043D060A7
:101930005E6806F08056B6F1805F7DD100BF00265C
:101940000096404E366846F480463E4F3E603E4626
:10195000366806F48046009600BF00BF3A4E8F08F6
:1019600056F827008E07370F0F26BE40B043374E7C
:10197000B24202D1002624E05EE0354EB24201D1EF
:1019800001261EE0334EB24201D1022619E0324E4A
:10199000B24201D1032614E0304EB24201D10426F6
:1019A0000FE02F4EB24201D105260AE02D4EB24281
:1019B00001D1062605E02C4EB24201D1072600E0F7
:1019C00008268F073F0FBE4030431F4E8F0846F852
:1019D0002700264E3068A0435E6806F48036B6F5D0
:1019E000803F00D12043214E3060361D3068A04337
:1019F0005E6806F40036B6F5003F00D120431B4E6A
:101A0000361D3060361D3068A0435E6806F48016CF
:101A1000B6F5801F00D12043144E08363060361DC5
:101A20003068A0435E6806F40016B6F5001F00D1CA
:101A300020430E4E0C363060491C1029FFF420AFB5
:101A4000F8BD000044380240083801400000024060
:101A50000004024000080240000C02400010024056
:101A60000014024000180240001C0240003C0140EB
:101A7000024613690B400BB1012000E000207047C3
:101A80000AB1816101E00B0483617047014800687D
:101A900070470000AC000020014691F83D007047FF
:101AA00070B504460CB9012070BD94F83D0028B90A
:101AB000002084F83C00204600F07CFC242084F8C0
:101AC0003D002068006820F001002168086000F0F7
:101AD0003BFE05465C496068884206D85B48854203
:101AE00001D2012007E0002005E05948854201D2DB
:101AF000012000E00020012800D1D5E75548B5FBC2
:101B0000F0F62068406820F03F00304321684860CC
:101B10004D496068884201D8701C07E04FF4967008
:101B200070434FF47A71B0FBF1F0401C2168096AF0
:101B300021F03F01084321680862434960688842F8
:101B400014D8681E61684900B0FBF1F0401CC0F376
:101B50000B00042801D204203DE0681E61684900A2
:101B6000B0FBF1F0401CC0F30B0034E0A06838B9C2
:101B7000681E616801EB4101B0FBF1F0401C0AE016
:101B8000681E616801EBC10202EB0111B0FBF1F0CC
:101B9000401C40F48040C0F30B0008B901201AE05B
:101BA000A06848B9681E616801EB4101B0FBF1F023
:101BB000401CC0F30B000CE0681E616801EBC10221
:101BC00002EB0111B0FBF1F0401CC0F30B0040F43C
:101BD000804040F400402168C9694CF6FF7291438F
:101BE00008432168C861D4E90701084321680968EE
:101BF00021F0C001084321680860D4E903100843BC
:101C00002168896848F2FF3291430843216888605F
:101C1000D4E9050108432168C96821F0FF010843A0
:101C20002168C8602068006840F0010021680860F1
:101C300000202064202084F83D000020206384F8E8
:101C40003E0000BF30E70000A086010080841E0037
:101C500000093D0040420F002DE9F8430446894643
:101C600017469846089EFFF711FF054694F83D0079
:101C700020287DD119230122B2492046009501F088
:101C80002BFE10B10220BDE8F88300BF94F83C00A1
:101C9000012801D10220F6E7012084F83C0000BFB2
:101CA0002068006800F0010028B92068006840F052
:101CB0000100216808602068006820F40060216845
:101CC0000860222084F83D00102084F83E000020A7
:101CD00020646762A4F82A80608D20859A48E062BB
:101CE0002B4632464946204601F04EFC08B1012001
:101CF000C9E7208D88B900BF0020009020684069A6
:101D0000009020688069009000BF00BF20680068D4
:101D100040F400702168086047E0208D012817D149
:101D20002068006820F480602168086000BF0020FF
:101D3000009020684069009020688069009000BF92
:101D400000BF2068006840F40070216808602CE043
:101D5000208D022818D12068006820F48060216856
:101D600008602068006840F400602168086000E0B6
:101D7000E6E000BF002000902068406900902068E5
:101D80008069009000BF10E02068006840F4806027
:101D90002168086000BF0020009020684069009022
:101DA00020688069009000BF00BFBAE0208D032842
:101DB0007ED8208D012815D12A463146204601F0D3
:101DC00030FE08B101205EE720680069616A087092
:101DD000606A401C6062208D401E2085608D401E20
:101DE00060859EE0208D02282AD133460022574983
:101DF0002046009501F070FD08B1012043E72068FE
:101E0000006840F400702168086020680069616A19
:101E10000870606A401C6062208D401E2085608DC5
:101E2000401E608520680069616A0870606A401C15
:101E30006062208D401E2085608D401E608570E0B0
:101E40003346002241492046009501F045FD08B186
:101E5000012018E72068006820F48060216808608D
:101E600020680069616A0870606A401C6062208DA9
:101E7000401E2085608D401E608533460022334918
:101E80002046009501F028FD08B10120FBE62068FE
:101E9000006840F400702168086020680069616A89
:101EA0000870606A401C6062208D401E208500E042
:101EB00010E0608D401E608520680069616A0870CE
:101EC000606A401C6062208D401E2085608D401E2F
:101ED000608526E02A463146204601F0A2FD08B181
:101EE0000120D0E620680069616A0870606A401CC1
:101EF0006062208D401E2085608D401E60852068B8
:101F00004069C0F3800060B120680069616A0870B0
:101F1000606A401C6062208D401E2085608D401EDE
:101F20006085208D00287FF441AF202084F83D009B
:101F3000002084F83E0000BF84F83C0000BFA2E609
:101F40000220A0E6020010000000FFFF04000100D4
:101F50002DE9F8430446894616461F46DDF82080E1
:101F6000FFF794FD054694F83D0020287ED1192303
:101F7000012251492046009501F0AEFC10B102202B
:101F8000BDE8F88300BF94F83C00012801D102208D
:101F9000F6E7012084F83C0000BF2068006800F0EC
:101FA000010028B92068006840F00100216808603D
:101FB0002068006820F4006021680860212084F80F
:101FC0003D00102084F83E00002020646662678592
:101FD000608D20853948E0622B46424649462046BE
:101FE00001F05AFB08B10120CAE700BF00200090B1
:101FF00020684069009020688069009000BF00BFA1
:1020000044E02A464146204601F04BFD50B1206C89
:10201000042805D12068006840F400702168086039
:102020000120ADE7606A007821680861606A401CA1
:102030006062608D401E6085208D401E2085206876
:102040004069C0F3800070B1208D60B1606A007893
:1020500021680861606A401C6062608D401E608576
:10206000208D401E20852A46414600E022E0204681
:1020700001F004FC50B1206C042805D120680068F0
:1020800040F4007021680860012079E7208D002865
:10209000B7D12068006840F40070216808602020F3
:1020A00084F83D00002084F83E0000BF84F83C0026
:1020B00000BF65E7022063E7020010000000FFFF99
:1020C0002DE9FC5F04460F4690469946DDE90CABCE
:1020D0000E9EFFF7DBFC054694F83D00202870D1EA
:1020E00019230122B0492046009501F0F5FB10B1FB
:1020F0000220BDE8FC9F00BF94F83C00012801D1FC
:102100000220F6E7012084F83C0000BF2068006848
:1021100000F0010028B92068006840F00100216843
:1021200008602068006820F40060216808602220B0
:1021300084F83D00402084F83E0000202064C4F86C
:1021400024A0A4F82AB0608D20859848E0624B4610
:10215000424639462046CDE9006501F0F3FA08B160
:102160000120C6E7208D88B900BF002001902068BB
:102170004069019020688069019000BF00BF20681D
:10218000006840F400702168086040E0208D01285C
:1021900018D12068006820F480602168086000BFC2
:1021A00000200190206840690190206880690190BA
:1021B00000BF00BF2068006840F40070216808601C
:1021C00025E0EFE0208D022816D12068006820F479
:1021D0008060216808602068006840F40060216821
:1021E000086000BF002001902068406901902068CD
:1021F0008069019000BF0AE000BF002001902068C4
:102200004069019020688069019000BF00BFBAE07A
:10221000208D03287ED8208D012815D12A463146ED
:10222000204601F0FEFB08B1012062E7206800694A
:10223000616A0870606A401C6062208D401E2085C3
:10224000608D401E60859EE0208D02282AD1334695
:10225000002257492046009501F03EFB08B10120BD
:1022600047E72068006840F4007021680860206833
:102270000069616A0870606A401C6062208D401EBF
:102280002085608D401E608520680069616A087045
:10229000606A401C6062208D401E2085608D401E5B
:1022A000608570E03346002241492046009501F0E8
:1022B00013FB08B101201CE72068006820F480604F
:1022C0002168086020680069616A0870606A401CC3
:1022D0006062208D401E2085608D401E60853346E3
:1022E000002233492046009501F0F6FA08B101209A
:1022F000FFE62068006840F40070216808602068EC
:102300000069616A0870606A401C6062208D401E2E
:10231000208500E010E0608D401E60852068006927
:10232000616A0870606A401C6062208D401E2085D2
:10233000608D401E608526E02A463146204601F029
:1023400070FB08B10120D4E620680069616A08705A
:10235000606A401C6062208D401E2085608D401E9A
:10236000608520684069C0F3800060B12068006922
:10237000616A0870606A401C6062208D401E208582
:10238000608D401E6085208D00287FF441AF2020A5
:1023900084F83D00002084F83E0000BF84F83C0033
:1023A00000BFA6E60220A4E6020010000000FFFF26
:1023B0000400010010B586B0044612492068884226
:1023C0001DD1C02001901220029001200390032013
:1023D00004900420059001A90B48FFF749FA00BFBB
:1023E000002000900948006840F400100749086088
:1023F0000846006800F40010009000BF00BF06B05F
:1024000010BD00000054004000040240403802406B
:1024100010B50D48006840F400700B49086008468C
:10242000006840F4806008600846006840F48070EE
:102430000860032000F0AEF80F2000F007F800F06D
:102440002BF8002010BD0000003C024070B504468F
:102450000E4800784FF47A71B1FBF0F00C4909682E
:10246000B1FBF0F5284600F00BFC08B1012070BD6F
:10247000102C07D200222146501E00F04CF80548CF
:10248000046001E00120F2E70020F0E79400002062
:10249000980000209000002010B5032000F07AF88A
:1024A000002211466FF00B0000F035F800221146B3
:1024B0006FF00A0000F02FF8002211466FF00900BB
:1024C00000F029F800221146501F00F024F80022E5
:1024D0001146101F00F01FF800221146901E00F058
:1024E0001AF800221146501E00F015F810BD0146E2
:1024F000084600280DDB00BF00BF00F01F030122CB
:102500009A4043099B0003F1E023C3F8002100BF78
:1025100000BF00BF70472DE9F05F80460D461646AC
:10252000002702F0F3FC074639462A46334601F0FD
:102530000700C0F1070ABAF1040F02D94FF0040AEC
:1025400001E0C0F1070AD14600F1040ABAF1070F11
:1025500002D24FF0000A01E0A0F1030AD4464FF086
:10256000010A0AFA09FAAAF1010A0AEA020A0AFAAF
:102570000CFA4FF0010B0BFA0CFBABF1010B0BEA61
:10258000030B4AEA0B042146404602F0C7FCBDE8B3
:10259000F09F000000BF00F00702064B19684FF6DD
:1025A000FF031940044B0B4343EA0221014B19601E
:1025B00000BF70470CED00E00000FA0570B504465E
:1025C0000D460CB9012070BD5848006800F00F009E
:1025D000A84209D255490D700846006800F00F0066
:1025E000A84201D00120EEE7207800F00200022886
:1025F0001DD1207800F00400042805D14C48006863
:1026000040F4E0504A490860207800F008000828AB
:1026100005D14748006840F4604045490860444897
:10262000006820F0F000A168084341490860207864
:1026300000F00100A8B36068012807D13C480838C1
:102640000068C0F34040B8B90120BCE760680228C8
:1026500002D06068032807D1354808380068C0F305
:10266000406048B90120AEE7314808380068C0F33F
:10267000400008B90120A6E72D48006820F00300BB
:10268000616808432A490860FFF700FA064609E036
:10269000FFF7FCF9801B41F28831884202D9032000
:1026A00091E707E02248006800F00C006168B0EB99
:1026B000810FEDD11D48006800F00F00A84209D934
:1026C0001A490D700846006800F00F00A84201D0BA
:1026D000012078E7207800F00400042807D114488E
:1026E000006820F4E050E168084311490860207850
:1026F00000F00800082808D10D48006820F4604068
:10270000216940EAC1000A49086000F03DF8084923
:102710000968C1F30311074A515CC84006490860C3
:102720000F20FFF793FE00204DE70000003C024021
:102730000838024004970408980000200148006807
:10274000704700009800002000B5FFF7F7FF04492C
:102750000968C1F38221034A515CC84000BD0000F2
:10276000083802401497040800B5FFF7E7FF044952
:102770000968C1F34231034A515CC84000BD000002
:1027800008380240149704082DE9F047002400257A
:102790000026A1462548006800F00C0020B104285E
:1027A00005D008283AD105E0DFF8849039E0DFF859
:1027B000849036E01D48001F006800F03F041B486D
:1027C000001F006800F4800078B11A481749091FFB
:1027D0000968C1F38811A0FB01700146224600235D
:1027E0003846FDF77EFE05460EE011480F49091FE9
:1027F0000968C1F38811A0FB01700146224600233D
:102800003846FDF76EFE05460848001F0068C0F315
:102810000140401C4600B5FBF6F902E0DFF81090DD
:1028200000BF00BF4846BDE8F087000008380240FE
:102830000024F40000127A00F8B504460CB9012017
:10284000F8BD207800F00100002874D0F948006835
:1028500000F00C0004280DD0F648006800F00C00D1
:10286000082813D1F348001F006800F48000B0F579
:10287000800F0BD1EF4808380068C0F340400028B3
:1028800059D06068002856D10120D9E700BF6068A0
:10289000B0F5803F08D1E7480838006840F4803040
:1028A000E449083908601EE06068B0F5A02F0DD13A
:1028B000E0480838006840F48020DE4908390860A4
:1028C0000846006840F4803008600CE0D9480838B9
:1028D000006820F48030D74908390860084600684D
:1028E00020F48020086000BF606890B1FFF7CEF848
:1028F000054606E0FFF7CAF8401B642801D903200B
:102900009EE7CC4808380068C0F340400028F1D06A
:1029100011E0FFF7BBF8054606E0FFF7B7F8401BEC
:10292000642801D903208BE7C24808380068C0F347
:1029300040400028F1D1207800F0020002285FD149
:10294000BC48006800F00C0058B1BA48006800F0BC
:102950000C0008281CD1B748001F006800F4800054
:10296000B0B9B44808380068C0F3400020B1E0684E
:10297000012801D0012063E7AE480838006820F044
:10298000F800216940EAC100AA490839086037E027
:10299000E06800B30120A8490860FFF777F8054612
:1029A00006E0FFF773F8401B022801D9032047E730
:1029B000A04808380068C0F340000028F1D09D48C6
:1029C0000838006820F0F800216940EAC100994900
:1029D0000839086014E0002097490860FFF756F8AE
:1029E000054606E0FFF752F8401B022801D90320F4
:1029F00026E7904808380068C0F340000028F1D16D
:102A0000207800F0080008282CD16069A8B10120C6
:102A10008A490860FFF73AF8054606E0FFF736F8FE
:102A2000401B022801D903200AE782486C30006865
:102A3000C0F340000028F1D014E000207F49086076
:102A4000FFF724F8054606E0FFF720F8401B0228B0
:102A500001D90320F4E677486C300068C0F34000E9
:102A60000028F1D1207800F00400042870D100265D
:102A700070483830006800F0805090B900BF0020E6
:102A800000906C483830006840F080506949383117
:102A900008600846006800F08050009000BF00BF4A
:102AA00001266748006800F48070B0B96448006887
:102AB00040F4807062490860FEF7E8FF054606E0D2
:102AC000FEF7E4FF401B022801D90320B8E65C486A
:102AD000006800F480700028F2D000BFA0680128D0
:102AE00008D154486830006840F00100514968310D
:102AF00008601DE0A06805280DD14E4868300068C8
:102B000040F004004B49683108600846006840F016
:102B1000010008600CE047486830006820F00100C0
:102B20004449683108600846006820F004000860E5
:102B300000BFA068A8B1FEF7A9FF054609E0FEF7AF
:102B4000A5FF401B41F28831884202D9032077E675
:102B500026E0384868300068C0F340000028EED016
:102B600013E0FEF793FF054608E0FEF78FFF401BDA
:102B700041F28831884201D9032061E62D4868304E
:102B80000068C0F340000028EFD1012E07D129488A
:102B90003830006820F0805026493831086000BF86
:102BA000A069B8B32348006800F00C0008285ED084
:102BB000A069022846D100201F490866FEF766FF7B
:102BC000054606E0FEF762FF401B022801D90320FC
:102BD00036E6184808380068C0F340600028F1D194
:102BE000D4E907010843616A40EA81110122A06A21
:102BF000C2EB500041EA00412C20005D41EA006038
:102C00000C49091F086001200B490866FEF73EFFCA
:102C1000054607E02DE0FEF739FF401B022801D9E9
:102C200003200DE6034808380068C0F34060002820
:102C3000F1D01EE00838024000004742800E4742B3
:102C40000070004000200C490866FEF71FFF054693
:102C500006E0FEF71BFF401B022801D90320EFE529
:102C600006480068C0F340600028F2D101E001206E
:102C7000E6E50020E4E5000000004742003802409D
:102C800070B504462546681EB0F1807F01D301204F
:102C90000FE0681E4FF0E02148610F214FF0FF3038
:102CA00002F03CF900204FF0E02188610720086124
:102CB000002070BD10B5024600BF92F83C0001280C
:102CC00001D1022010BD012082F83C0000BF02208B
:102CD00082F83D00106843681068846823F0700330
:102CE0000868034324F08004486804431068436084
:102CF00010688460012082F83D0000BF002082F847
:102D00003C0000BF00BFDDE770B504460D46164627
:102D100000BF94F83C00012801D1022070BD0120C1
:102D200084F83C0000BF022084F83D0036B1042E38
:102D30001BD0082E31D00C2E5ED145E029462068EC
:102D400001F036FC2068806940F008002168886145
:102D50002068806920F0040021688861206880690B
:102D6000296908432168886147E02946206801F005
:102D700057FC2068806940F4006021688861206801
:102D8000806920F4806021688861206880692969F1
:102D900040EA0120216888612FE02946206801F07F
:102DA0007DFC2068C06940F008002168C861206887
:102DB000C06920F004002168C8612068C0692969E1
:102DC00008432168C86118E02946206801F0A2FC88
:102DD0002068C06940F400602168C8612068C0694B
:102DE00020F480602168C8612068C069296940EAD0
:102DF00001202168C86100E000BF00BF012084F805
:102E00003D0000BF002084F83C0000BF00BF85E704
:102E100010B504460CB9012010BD94F83D0028B946
:102E2000002084F83C00204600F00CF8022084F8D2
:102E30003D00211D206801F03DFB012084F83D008C
:102E40000020E9E708B5344A016891420FD100BF7C
:102E5000002100913149096841F001012F4A1160B8
:102E60001146096801F00101009100BF00BF2C4A22
:102E70000168914211D100BF002100912749091F2B
:102E8000096841F00201254A121F116011460968C4
:102E900001F00201009100BF00BF224A0168914287
:102EA00011D100BF002100911C49091F096841F0A0
:102EB00004011A4A121F11601146096801F0040149
:102EC000009100BF00BF184A016891420FD100BFB6
:102ED000002100911149096841F002010F4A116077
:102EE0001146096801F00201009100BF00BF0F4ABE
:102EF000016891420FD100BF002100910749096884
:102F000041F48031054A11601146096801F48031AD
:102F1000009100BF00BF08BD0000014044380240DE
:102F2000000400400008004000040140004001404F
:102F300070B504460E4601223146206801F026FB9A
:102F40000F492068884203D00E492068884201D189
:102F5000012000E0002028B12068406C40F40040CF
:102F6000216848642068806800F00705062D05D0B8
:102F70002068006840F0010021680860002070BDF2
:102F8000000001400004014030B504460D46002217
:102F90002946206801F0FAFA1B492068884203D0CC
:102FA0001A492068884201D1012000E0002090B138
:102FB00000BF2068006A41F21111084050B9206832
:102FC000006A8910084028B92068406C20F400404D
:102FD0002168486400BF00BF2068006A41F21111F7
:102FE000084050B92068006A8910084028B9206854
:102FF000006820F001002168086000BF012084F80B
:103000003D00002030BD00000000014000040140F0
:10301000704700002DE9F0470446206805682068E5
:10302000C668206847694FF00008C14605F00F08E0
:10303000B8F1000F0AD105F0200038B106F02000E9
:1030400020B1204601F0C2FBBDE8F087B8F1000FC7
:103050006ED007F0010018B906F49070002867D010
:1030600005F0010030B106F4807018B1E06B40F05B
:103070000100E06305F0040030B107F0010018B171
:10308000E06B40F00200E06305F0020030B107F0B1
:10309000010018B1E06B40F00400E06305F00800A7
:1030A00030B107F0010018B1E06B40F00800E063B8
:1030B000E06B70B305F0200028B106F0200010B1DD
:1030C000204601F083FB20684069C0F38019E06B63
:1030D00000F0080010B9B9F1000F23D0204601F02C
:1030E00055FB2068406900F04000402816D1206858
:1030F000406920F0400021684861606B50B117487A
:10310000616B0865606BFEF7B9F910B1606B016D1A
:1031100088470CE02046FFF77BFF08E02046FFF7DA
:1031200077FF04E02046FFF773FF0020E0638BE7A2
:1031300005F0800030B106F0800018B1204601F0A3
:103140004DFD81E705F0400030B106F0400018B1B8
:10315000204601F02BFB77E700BF75E779470408AD
:1031600010B504460CB9012010BDA06900B100E003
:1031700000BF94F8390028B9002084F838002046B0
:1031800000F028F8242084F839002068C06820F472
:1031900000502168C860204601F06CFB206800697F
:1031A00020F49040216808612068406920F02A00DE
:1031B000216848612068C06840F400502168C860F8
:1031C0000020E063202084F8390084F83A000020D1
:1031D000CAE7000010B586B004463C492068884222
:1031E00038D100BF002000903948006840F010003E
:1031F000374908600846006800F01000009000BFE2
:1032000000BF00BF0020009031481438006840F033
:1032100001002F49143908600846006800F00100D9
:10322000009000BF00BF4FF4C060019002200290E8
:1032300001200390032004900720059001A9254850
:10324000FEF716FB022200212520FFF764F9252056
:10325000FFF74DF920492068884235D100BF002092
:1032600000901B48001F006840F480101849091F97
:1032700008600846006800F48010009000BF00BF9E
:1032800088140190022002900120039003200490F2
:103290000820059001A91148FEF7EAFA04200190E0
:1032A0000220029001200390032004900820059042
:1032B00001A90B48FEF7DCFA022200213520FFF7B6
:1032C0002AF93520FFF713F906B010BD00100140B0
:1032D0004438024000000240005000400008024014
:1032E000000C024010B5034693F83A0020282FD175
:1032F00001B10AB9012010BD00BF93F838000128C0
:1033000001D10220F7E7012083F8380000BF99625D
:103310009A85DA850020D863222083F83A0000BF1E
:10332000002083F8380000BF1868C06840F480703F
:103330001C68E0601868406940F001001C6860612A
:103340001868C06840F020001C68E0600020D2E7E8
:103350000220D0E72DE9F04106460024FEF796FB57
:1033600005464F49306888427ED14E4804784E4821
:103370000068281AC82804D900204C4908704A4817
:1033800005604A48007808280AD2DFE800F0040AFD
:103390001A23323D495A552C02D101204349087065
:1033A00075E0FF2C07D10220404908704FF6557098
:1033B0003F49088004E0552C02D000203B490870AA
:1033C00065E00320394908703948448000203949B4
:1033D00008805CE00420354908703548408800EBDF
:1033E00004203349488033480088401C3149088014
:1033F0004DE005202D4908702D4804712D480088A6
:10340000401C2C49088042E00620284908702848C2
:10341000A0F8054027480088401C2649088036E06F
:103420000720224908702248B0F8050000EB04206C
:103430001F49A1F805001F480088401C1D4908804D
:1034400025E01B4FFF1C1B48008807443C701948AF
:103450000088401C80B21749088015494988884275
:1034600011DB1348408800E017E0C21C10491248E5
:10347000FDF716FA00200D4908700B480560012081
:103480000E49087002E007200849087000BF00BF1D
:10349000012204493046FFF725FFBDE8F081000016
:1034A0000010014054000020500000203000002097
:1034B000D408002046000020DC0A00200000002084
:1034C00010B5034693F83900202823D101B10AB979
:1034D000012010BD00BF93F83800012801D102205F
:1034E000F7E7012083F8380000BF19629A84DA8474
:1034F0000020D863212083F8390000BF002083F822
:10350000380000BF1868C06840F080001C68E060A8
:103510000020DEE70220DCE7704700BFFEE770B561
:1035200005460C46FEF7B2FA064607E024B1FEF760
:10353000ADFA801BA04201D9002070BD2846FEF7DD
:10354000ABFA2028F2D10120F7E70146086840696C
:10355000C0F38020B0B16FF480600A685061002031
:103560000863202081F83D00002081F83E00086CAF
:1035700040F00400086400BF002081F83C0000BF58
:10358000012070470020FCE72DE9F84304460D4672
:1035900090461E46E76A2068006840F48060216813
:1035A0000860082F04D0012F02D017F5803F06D104
:1035B0002068006840F480702168086008E0206B93
:1035C000112805D12068006840F4807021680860E7
:1035D000434600224FF001112046009600F07CF98E
:1035E00010B10120BDE8F8832069B0F5804F05D106
:1035F000E8B240F00100216808613FE005F4407046
:10360000F02141EAE0102168086133464246214931
:10361000204600F0A4F908B10120E3E7E8B22168F0
:103620000861334642461B49891F204600F097F93E
:1036300008B10120D6E700BF002000902068406953
:10364000009020688069009000BF00BF206800687B
:1036500040F4807021680860434600224FF0011159
:103660002046009600F038F908B10120BAE705F4C9
:103670004070F12141EAE01021680861334642467A
:103680000449891F204600F06AF908B10120A9E722
:103690000020A7E7080001002DE9F84304460D4685
:1036A00017469846E66A082E04D0012E02D016F579
:1036B000803F06D12068006840F48070216808606F
:1036C00008E0206B122805D12068006840F4807063
:1036D000216808603B4600224FF001112046CDF8DA
:1036E000008000F0F9F810B10120BDE8F8832069EE
:1036F000B0F5804F04D105F0FE002168086112E0AA
:1037000005F44070F02141EAE01021680861434669
:103710003A460B49204600F022F908B10120E4E7BF
:10372000E8B22168086143463A460549891F2046A8
:1037300000F015F908B10120D7E70020D5E7000017
:10374000080001002DE9F84304460F461546994646
:10375000DDE908862068006840F480602168086020
:103760002068006840F480702168086043460022A9
:103770004FF001112046009600F0AEF810B1012084
:10378000BDE8F88307F0FE00216808613346424631
:103790003949204600F0E3F808B10120F0E700BF06
:1037A00000200090206840690090206880690090A7
:1037B00000BF00BF32464146204600F072F950B1CA
:1037C000206C042805D12068006840F4007021684E
:1037D00008600120D4E7B9F1010F03D1E8B22168F4
:1037E000086117E0C5F307202168086132464146A9
:1037F000204600F056F950B1206C042805D120680D
:10380000006840F40070216808600120B8E7E8B261
:103810002168086132464146204600F042F950B125
:10382000206C042805D12068006840F400702168ED
:1038300008600120A4E72068006840F480702168D7
:103840000860434600224FF001112046009600F028
:1038500043F808B1012093E7F8B240F00100216875
:103860000861334642460449204600F078F808B122
:10387000012085E7002083E70200010070B50446BF
:103880000D46164620E02046FFF75FFE08B10120F6
:1038900070BD681CC0B1FEF7F9F8801BA84200D8C3
:1038A00095B900202063202084F83D00002084F892
:1038B0003E00206C40F02000206400BF002084F80F
:1038C0003C0000BF0120E3E720684069C0F38000AE
:1038D0000028D8D00020DBE72DE9F04104460D4652
:1038E00017461E46DDF818801CE0701CD0B1FEF7AC
:1038F000CDF8A0EB0800B04200D89EB900202063AC
:10390000202084F83D00002084F83E00206C40F028
:103910002000206400BF002084F83C0000BF01208C
:10392000BDE8F081C5F3074001280AD1206840694D
:10393000A9B20840A9B2884201D101200BE00020C1
:1039400009E020688069A9B20840A9B2884201D183
:10395000012000E00020B842C7D00020E0E72DE9B8
:10396000F04104460D4616461F463DE0206840697A
:10397000C0F38020E8B12068006840F4007021683E
:1039800008606FF480602168486100202063202077
:1039900084F83D00002084F83E00206C40F00400D4
:1039A000206400BF002084F83C0000BF0120BDE877
:1039B000F081701CC0B1FEF769F8C01BB04200D89E
:1039C00096B900202063202084F83D00002084F870
:1039D0003E00206C40F02000206400BF002084F8EE
:1039E0003C0000BF0120E2E7C5F3074001280AD1EF
:1039F00020684069A9B20840A9B2884201D10120DB
:103A00000BE0002009E020688069A9B20840A9B253
:103A1000884201D1012000E000200028A6D000202B
:103A2000C5E770B504460D46164632E02068406989
:103A3000C0F30010A0B16FF01000216848610020B1
:103A40002063202084F83D00002084F83E00206C94
:103A5000206400BF002084F83C0000BF012070BD3E
:103A6000FEF714F8801BA84200D895B90020206307
:103A7000202084F83D00002084F83E00206C40F0B7
:103A80002000206400BF002084F83C0000BF01201B
:103A9000E5E720684069C0F380100028C6D0002008
:103AA000DDE770B504460D46164620E02046FFF7D8
:103AB0004CFD08B1012070BD681CC0B1FDF7E6FFE8
:103AC000801BA84200D895B900202063202084F8EC
:103AD0003D00002084F83E00206C40F0200020646F
:103AE00000BF002084F83C0000BF0120E3E720680D
:103AF0004069C0F3C0100028D8D00020DBE70000E8
:103B000010B586B00120029003900220049000249A
:103B10000CE0084800EBC40080880190054951F88A
:103B2000340001A9FDF7A4FE601CC4B2102CF0DB28
:103B300006B010BDF495040810B5484A9188106885
:103B4000FDF796FF38B101204549487545480068A2
:103B50004549086015E04448006842490968081A68
:103B6000B0F5967F0DD93D4A91881068FDF780FF2A
:103B7000012806D000203A4948753A4800683A4979
:103B80000860364A91899068FDF772FF38B10120CC
:103B900033498875334800683349486015E0324836
:103BA000406830490968081AB0F5967F0DD92B4A4C
:103BB00091899068FDF75CFF012806D00020284914
:103BC00088752848006828494860244A918A106905
:103BD000FDF74EFF38B101202149C8752148006822
:103BE0002149886015E0204880681E490968081A44
:103BF000B0F5967F0DD9194A918A1069FDF738FF03
:103C0000012806D000201649C875164800681649D4
:103C10008860124A918B9069FDF72AFF38B1012024
:103C20000F4908760F4800680F49C86015E00E4834
:103C3000C0680C490968081AB0F5967F0DD9074A83
:103C4000918B9069FDF714FF012806D000200449EC
:103C50000876044800680449C86010BD84900408D0
:103C600068280020AC000020AC01002000B585B021
:103C700018481949086019484860002116488160B1
:103C8000C1604FF480410161002141618161C161E6
:103C90000162FDF705FF18B111A004F045FF02E035
:103CA00014A004F041FF0120019002900220039033
:103CB000C002009069461448FDF7DAFD01221103A5
:103CC0001148FDF7DDFE4FF4FA7002F077FF05B002
:103CD00000BD000000540040082B0020801A0600A0
:103CE000696E697420493243206661696C6564209D
:103CF0000A0D0000696E697420493243206F6B6BB6
:103D00006B6B0A0D000000000010024070B58EB011
:103D1000EA4C40F24D150226E948EA490860EA48B3
:103D20000068B0FBF4F0401E48600021E548816067
:103D3000B4FBF5F1C16000210161FFF769F80020D3
:103D40000C900D900CA9DF48FEF7B4FF60200590A1
:103D5000B4FBF5F040080690002007900990DB487E
:103D600005A98268D748FEF7CFFFD84805A9426960
:103D7000D448FEF7C9FFD54805A9026DD148FEF722
:103D8000C3FFD24805A9C26DCE48FEF7BDFF122081
:103D90000190012002900320039001200490CB4861
:103DA00080880090C94908686946FDF761FDC748E9
:103DB000008A0090C549C8686946FDF759FDC348A7
:103DC000B0F84C000090C149886C6946FDF750FD81
:103DD000BE48B0F858000090BC49486D6946FDF7F0
:103DE00047FDBB48BB490860B7480068B0FBF4F02A
:103DF000B0FBF6F0401E48600021B6488160B4FB7D
:103E0000F5F1C16000210161FFF702F800200C907C
:103E10000D900CA9AF48FEF74DFF60200590B4FB54
:103E2000F5F040080690002007900990A74805A9E2
:103E3000026AA848FEF768FFA44805A9C26AA54817
:103E4000FEF762FF122001900120029003200390F0
:103E5000022004909D48808B00909C4988696946A7
:103E6000FDF706FD9948008D00909849486A69461B
:103E7000FDF7FEFC98489949086093480068B0FB3C
:103E8000F4F0B0FBF6F0401E4860002193488160DA
:103E9000B4FBF5F1C16000210161FEF7B9FF00201C
:103EA0000C900D900CA98D48FEF704FF6020059042
:103EB000B4FBF5F040080690002007900990834875
:103EC00005A9826B8548FEF71FFF804805A9426C53
:103ED0008248FEF719FF7D4805A9D0F8B0207F4839
:103EE000FEF712FF794805A9D0F8BC207B48FEF701
:103EF0000BFF12200190012002900320039002206A
:103F000004907248808E00907049086B6946FDF7F6
:103F1000AFFC6E48B0F8400000906C49C86B694631
:103F2000FDF7A6FC6948B0F8AC0000906749D1F8ED
:103F3000A8006946FDF79CFC6448B0F8B800009002
:103F40006249D1F8B4006946FDF792FC64486549BE
:103F500008605D480068B0FBF4F0401E4860002136
:103F600060488160B4FBF5F1C16000210161FEF79A
:103F70004FFF00200C900D900CA95A48FEF79AFEB6
:103F800060200590B4FBF5F04008069000200790F3
:103F900009904E4805A9826E5248FEF7B5FE4B487F
:103FA00005A9426F4F48FEF7AFFE484805A9D0F873
:103FB00080204C48FEF7A8FE444805A9D0F88C2084
:103FC0004848FEF7A1FE1220019001200290032034
:103FD000039004903D48B0F8640000903B49086E9F
:103FE0006946FDF745FC3948B0F870000090374944
:103FF000C86E6946FDF73CFC3448B0F87C00009080
:104000003249886F6946FDF733FC3048B0F88800C4
:1040100000902E49D1F884006946FDF729FC32480A
:104020003249086028480068B0FBF4F0401E486040
:1040300000212E488160B4FBF5F1C16000210161CF
:10404000FEF7E6FE00200C900D900CA92748FEF725
:1040500031FE60200590B4FBF5F04008069000208A
:1040600007900990194805A9D0F898201F48FEF735
:104070004BFE164805A9D0F8A4201C48FEF744FEC4
:1040800012200190012002900320039004900F4819
:10409000B0F8940000900D49D1F890006946FDF702
:1040A000E7FB0A48B0F8A00000900849D1F89C004E
:1040B0006946FDF7DDFB0EB070BD000040420F0009
:1040C0000000014088290020980000203495040851
:1040D00000040040C829002000080040082A0020F1
:1040E00000040140482A002000400140882A0020A6
:1040F00000BFFEE77047000010B5044622464FF4AB
:1041000080510248FDF7BCFC10BD000000100240C9
:1041100010B502460B460024002103E0505C204409
:10412000C4B2491C9942F9DBE043401CC0B210BD47
:1041300010B502460B460020002103E0545C044405
:10414000E0B2491C9942F9DB10BD000010B58AB0FD
:1041500000BF002000904648006840F48070444949
:1041600008600846006800F48070009000BF00BF3F
:104170004048414908600020486000213E48816075
:10418000012101610176002180F82010C1623B49C4
:1041900081620021C1601021C161012180F83010CD
:1041A00000214161FDF772F807200890032002907A
:1041B00000200390079000241CE004EB44003049E9
:1041C00001EB80008088019004EB44012C4A52F8F6
:1041D000210001A9FDF74CFB601C079004EB440093
:1041E000274901EB80008068069006A92248FCF769
:1041F00083FF641C102CE0DB00BF002000901C48F3
:104200001438006840F480001949143908600846E1
:10421000006800F48000009000BF00BF002211463B
:104220003820FEF778F93820FEF761F9154816496D
:10423000086000204860002113488160C1604FF48D
:104240008061016149004161890081614911C16159
:10425000002101624162FDF745FA00BF0A480649A4
:10426000886308460849886300BF0AB010BD000093
:104270004438024000200140C40000200100000F2B
:10428000C48F0408106402400C01002010B586B0F1
:104290000020029003900320049000240CE01348B7
:1042A00000EBC40080880190104951F8340001A946
:1042B000FDF7DEFA601CC4B2042CF0DB4FF40060A2
:1042C000019001A90A48FDF7D3FA4FF480600190EC
:1042D00001A90748FDF7CCFA4FF40040019001A96D
:1042E0000448FDF7C5FA06B010BD0000849004082C
:1042F000000802400000024000B593B000BF00205B
:1043000001902148006840F080501F49086008462D
:10431000006800F08050019000BF00BF00BF002087
:1043200001901A48006840F4804018490860084627
:10433000006800F48040019000BF00BF012007909A
:104340000004089002200D9041050E9108210F9164
:104350004FF4A8711091022111910721129107A821
:10436000FEF76AFA0D2002900220039000200490CC
:104370004FF4A05005904FF480500690052102A8FC
:10438000FEF71CF913B000BD403802400070004039
:1043900070B500200022022300240221274D2D6841
:1043A00005F00C0020B1042806D0082834D107E01D
:1043B000234D244E356033E0234D224E35602FE0EF
:1043C0001E4D2D1F2D68C5F380541C4D2D1F2D68CB
:1043D00005F03F0154B11C4DB5FBF1F5174E361FEA
:1043E0003668C6F3881605FB06F209E0144DB5FBE6
:1043F000F1F5124E361F3668C6F3881605FB06F235
:104400000E4D2D1F2D68C5F301456D1C6B00B2FBD1
:10441000F3F50C4E356003E0094D0A4E356000BFE0
:1044200000BF064D2D68C5F30315084E705D054DA0
:104430002D68C540034E356070BD0000083802404D
:104440000024F4009800002000127A000497040869
:104450001348006840F47000114908601148006872
:1044600040F001000F49086000200E490831086043
:104470000C4800680C4908400A4908600B48091DAF
:104480000860081F006820F48020091F08600020D1
:1044900004490C31086006480149803908607047BA
:1044A00088ED00E000380240FFFFF6FE10300024E7
:1044B0000000040810B50268294B98420ED0B0F1F4
:1044C000804F0BD0274B984208D0274B984205D0FD
:1044D000264B984202D0264B984203D122F070021C
:1044E0004B681A431E4B984220D0B0F1804F1DD02C
:1044F0001C4B98421AD01C4B984217D01B4B984229
:1045000014D01B4B984211D01A4B98420ED01A4B24
:1045100098420BD0194B984208D0194B984205D0BD
:10452000184B984202D0184B984203D122F44072A3
:10453000CB681A4322F080034C6943EA040202600C
:104540008B68C3620B688362054B984202D0084BAC
:10455000984201D10B6903630123436110BD000040
:10456000000001400004004000080040000C004032
:104570000004014000400140004401400048014067
:1045800000180040001C00400020004030B501F041
:104590001F05012404FA05F3046A9C430462046ABB
:1045A00001F01F0502FA05F52C43046230BD00003E
:1045B00030B5056A25F001050562026A4368846921
:1045C00024F0700424F003040D682C4322F002024E
:1045D0008D682A43104DA84200D103E00F4DA84238
:1045E00006D100BF22F00802CD682A4322F004025F
:1045F000094DA84202D0094DA84207D123F4807387
:1046000023F400734D692B438D692B434360846110
:104610004D684563026230BD000001400004014066
:1046200030B5056A25F010050562026A43688469A1
:1046300024F4E04424F440740D6844EA052422F094
:1046400020028D6842EA0512124DA84200D103E013
:10465000114DA84207D100BF22F08002CD6842EA86
:10466000051222F040020B4DA84202D00A4DA8428A
:1046700009D123F4806323F400634D6943EA850381
:104680008D6943EA8503436084614D6885630262F6
:1046900030BD0000000001400004014030B5056A53
:1046A00025F480750562026A4368C46924F07004C9
:1046B00024F003040D682C4322F400728D6842EA52
:1046C0000522124DA84200D103E0114DA84207D1A6
:1046D00000BF22F40062CD6842EA052222F4806223
:1046E0000A4DA84202D00A4DA84209D123F48053B2
:1046F00023F400534D6943EA05138D6943EA05131A
:104700004360C4614D68C563026230BD0000014072
:104710000004014030B5056A25F480550562036A3E
:104720004468C26922F4E04222F440720D6842EA11
:10473000052223F400538D6843EA0533084DA8424F
:1047400002D0084DA84204D124F480444D6944EAC3
:1047500085144460C2614D680564036230BD000089
:10476000000001400004014010B50248FEF752FC71
:1047700010BD0000FC01002070B50546AC6B0020A8
:10478000E085E0842046FEF743FC70BD0168C968FF
:1047900021F490710268D1600168496921F001013A
:1047A00002685161202180F83A10704710B5044624
:1047B0002068C06820F040002168C860202084F88C
:1047C00039002046FEF7A8FE002010BD70B5044653
:1047D00094F83A0022284AD1A068B0F5805F13D13E
:1047E000A56A206940B920684068C0F308002880A5
:1047F000A06A801CA06219E020684068C0B22880CE
:10480000A06A401CA06211E0206938B920684068A5
:10481000C1B2A26A501CA062117007E02068406813
:1048200000F07F01A26A501CA0621170E08D401E52
:1048300080B2E085C8B92068C06820F020002168F7
:10484000C8602068C06820F480702168C860206853
:10485000406920F0010021684861202084F83A0076
:104860002046FEF777FD002070BD0020FCE7022007
:10487000FAE700002DE9F04104462068006920F4C1
:104880004050E1680843216808612169A068084335
:1048900061690843E16940EA01052068C06849F29E
:1048A0000C61884328432168C8602068406920F46F
:1048B0004070A169084321684861E069B0F5004F84
:1048C0007ED1C4492068884203D0C3492068884209
:1048D0005DD1FDF749FF00EBC00101EB00106168FD
:1048E0004900B0FBF1F06421B0FBF1F00601FDF7E7
:1048F0003BFF00EBC00101EB001061684900B0FB19
:10490000F1F7FDF731FF00EBC00101EB001061682A
:104910004900B0FBF1F06421B0FBF1F000EBC00105
:1049200001EB0010A7EB8000322101EBC0006421F5
:10493000B0FBF1F000F0F80006EB4006FDF714FFC5
:1049400000EBC00101EB001061684900B0FBF1F71A
:10495000FDF70AFF00EBC00101EB001061684900A0
:10496000B0FBF1F06421B0FBF1F000EBC00101EB12
:104970000010A7EB8000322101EBC0006421B0FBE6
:10498000F1F000F0070030442168886020E1FDF775
:10499000DBFE00EBC00101EB001061684900B0FBD9
:1049A000F1F06421B0FBF1F00601FDF7CDFE00EB64
:1049B000C00101EB001061684900B0FBF1F700E0B5
:1049C00045E0FDF7C1FE00EBC00101EB001061689E
:1049D0004900B0FBF1F06421B0FBF1F000EBC00145
:1049E00001EB0010A7EB8000322101EBC000642135
:1049F000B0FBF1F000F0F80006EB4006FDF7A4FE76
:104A000000EBC00101EB001061684900B0FBF1F759
:104A1000FDF79AFE00EBC00101EB00106168490050
:104A2000B0FBF1F06421B0FBF1F000EBC00101EB51
:104A30000010A7EB8000322101EBC0006421B0FB25
:104A4000F1F000F00700304421688860C0E061495F
:104A50002068884203D06049206888425CD1FDF715
:104A600083FE00EBC00101EB001061688900B0FB20
:104A7000F1F6FDF779FE00EBC00101EB0010616873
:104A80008900B0FBF1F06421B0FBF1F000EBC00154
:104A900001EB0010A6EB8000322101EB0010642135
:104AA000B0FBF1F000F0F006FDF75EFE00EBC00198
:104AB00001EB001061688900B0FBF1F06421B0FBEC
:104AC000F1F006EB0016FDF74FFE00EBC00101EB25
:104AD000001061688900B0FBF1F7FDF745FE00EBBF
:104AE000C00101EB001061688900B0FBF1F06421A6
:104AF000B0FBF1F000EBC00101EB0010A7EB800070
:104B0000322101EB00106421B0FBF1F000F00F0046
:104B10003044216888605BE0FDF716FE00EBC001C1
:104B200001EB001061688900B0FBF1F6FDF70CFEA7
:104B300000EBC00101EB001061688900B0FBF1F0EF
:104B40006421B0FBF1F000EBC00101EB0010A6EB1B
:104B50008000322101EB00106421B0FBF1F000F085
:104B6000F006FDF7F1FD00EBC00101EB00106168FC
:104B70008900B0FBF1F06421B0FBF1F006EB001608
:104B8000FDF7E2FD00EBC00101EB00106168890058
:104B9000B0FBF1F7FDF7D8FD00EBC00101EB001011
:104BA00061688900B0FBF1F06421B0FBF1F000EB2B
:104BB000C00101EB0010A7EB8000322101EB0010D7
:104BC0006421B0FBF1F000F00F00304421688860F0
:104BD000BDE8F0810010014000140140014691F849
:104BE000390021282CD18868B0F5805F0FD10A6A7E
:104BF0001088C0F308000B685860086918B9086A83
:104C0000801C086209E0086A401C086205E00B6A23
:104C1000581C086218780B685860C88C401E80B217
:104C2000C88458B90868C06820F080000B68D86054
:104C30000868C06840F040000B68D86000207047EA
:104C40000220FCE710B50248FEF7E4F910BD0000B1
:104C5000BC0100202DE9F04105460F461446042C06
:104C600005D104209C49087207204880CEE02846E0
:104C70001E2D7FD010DC1A286CD006DC022814D040
:104C8000152826D0192874D129E01B2863D01C28A8
:104C90002CD01D28F7D156E01F38072869D2DFE84D
:104CA00000F06F80868CA2A896008C48007818B916
:104CB00008208B49087002E00120894908701922F8
:104CC000874985480830FBF7EBFD1F208249488063
:104CD0009BE08148047207207F49488095E04FF4AB
:104CE000027280497C48FBF7DBFD8EE07E48047051
:104CF0007C48007A7C4948707A48007A18B978482C
:104D0000407D887015E07748007A012804D1744806
:104D1000807D754988700CE07248007A022804D1C1
:104D20006F48C07D7049887003E06D48007E6E4911
:104D3000887069486C490A880281897881720920E3
:104D40006549488061E064480472072062494880F0
:104D50005BE00FE01FE060480472401C63490A6892
:104D600082608A888281897981730E205A494880BD
:104D70004BE044E05848047207205749488044E01B
:104D80005548047212225A490930FBF789FD19204F
:104D90005149488039E05048047207204E49488004
:104DA00033E04D48047207204B4948802DE04A48C3
:104DB000047207204849488027E047484D490A883F
:104DC0000281897881720920434948801DE040F6BC
:104DD000040249494948FBF763FD40F60A00474988
:104DE0000839488011E03C48047207203A4948805D
:104DF0000BE03948047207203749488005E002205B
:104E0000354908720720488000BF00BF252D34D1E6
:104E10004FF6557039490839088002200871314829
:104E2000B0F80500A1F805000846C571408840F6B5
:104E30000A01884202D90220BDE8F0812F480838D3
:104E40004188801CFFF764F906462C4808384088E2
:104E5000C21C2A4908392A48FBF722FD274808388E
:104E60004088801C26490E54244808384088C01CBD
:104E700081B2234803F06AFE2BE04FF655701649C5
:104E80000880022008711748B0F80500A1F8050055
:104E90000846C5714088B0F5027F01DD0220CBE7EE
:104EA0000D484188801CFFF733F906460A484088C0
:104EB000C21C09491348FBF7F3FC07484088801CD3
:104EC00010490E5404484088C01C81B20D4803F0BC
:104ED0003DFE0120B0E70000CC06002002000020CB
:104EE00068280020DC0A0020310000203400002067
:104EF000B915002043000020EB150020EC0C002029
:104F00005B200020531E002000BFFEE7024800681F
:104F1000C0F30220704700000CED00E010B500283F
:104F200004DB0A07130E054A135406E00A07140EA1
:104F3000034A00F00F031B1FD45410BD00E400E02F
:104F400018ED00E010B5002A06DA22F00042D21D6A
:104F500022F00703102203E0D21C22F003030C22EC
:104F600013B19C188C4201D9012010BD02440144A8
:104F70008360C0E90021C91AD018884202D81060A5
:104F80000246F9E70020106010BD30380A2801D22F
:104F9000012070470020704705490978002905D095
:104FA00000684FF6FF71DFF80CC000DF70470000AB
:104FB0009D00002091830408084A10B5116903463A
:104FC000082900D3FEE7064800EB0110491C1860D1
:104FD000116103F069F9012010BD00007800002084
:104FE0001460002004490978002903D00068DFF824
:104FF0000CC000DF704700009D000020B98204084B
:1050000010B50446204600F05FFE00EB4000FC496E
:105010000844407801285BD1204600F055FEF9494C
:10502000085C012837D1F8A003F07EFD204600F08F
:105030004BFEF44902220A5404F10900C1B200EB0C
:105040004000F74A1154F74904F1090031F81010F3
:1050500000EB40001044A0F801100121F24A04F1D5
:1050600009001154204600F02FFE0346204600F0B0
:105070002BFE00EB4000ED490B54204600F024FECF
:1050800000EB4000DE49085C00EB4000E7490844C3
:1050900001214170B2E1204600F016FED949085CBA
:1050A0000228F7D1E04904F10900085C0028F1D199
:1050B000DFA003F039FD204600F006FED1490022B2
:1050C0000A54204600F000FEDD4900220A5495E112
:1050D000204600F0F9FD00EB4000C9490844407843
:1050E00002286ED1204600F0EFFDC649085C012879
:1050F00035D1204600F0E8FDC24902220A5404EBF3
:105100004400C7490C54C74830F8140004EB44016C
:10511000C34A1144A1F801000120C3490855601C8D
:10512000C1B200EB40001154BE49601C31F81010B0
:1051300000EB40001044A0F801100121BA4A601CA5
:105140001154204600F0C0FD00EB4000AC49085C63
:1051500000EB4000B5490844022141704EE1204671
:1051600000F0B2FDA749085C02283CD1C4EBC400A2
:10517000B44908444078022824D1601CC0EBC00028
:105180000844407802281DD104F10800C1B200EBA8
:105190004000A34A1154A34904F1080031F810104B
:1051A00000EB40001044A0F8011001219E4A04F1D8
:1051B00008001154204600F087FD924903220A544A
:1051C00005E02AE00021984A04F108001154204625
:1051D00000F07AFD0346204600F076FD00EB40002B
:1051E00092490B540AE1204600F06EFD8549085CA7
:1051F0000328B3D18C4904F10800085C0028ADD124
:10520000204600F061FD7F4900220A54204600F04C
:105210005BFD8B4900220A54F0E0204600F054FD6B
:1052200000EB4000764908444078042874D12046B9
:1052300000F04AFD7349085C012829D1204600F09E
:1052400043FD704902220A5404F10800C1B200EB88
:105250004000734A11547C4904F1080031F81010E1
:1052600000EB40001044A0F8011001216E4A04F147
:1052700008001154204600F027FD00EB4000604973
:10528000085C00EB40006949084404214170B5E026
:10529000204600F019FD5B49085C02283DD104F16D
:1052A0000800C0EBC000674908444078032899D142
:1052B00004EB44005A490C54634830F8140004EBE2
:1052C0004401574A1144A1F80100012056490855EC
:1052D000601CC1B200EB400011545B49601C31F806
:1052E000101000EB40001044A0F8011001214E4ABC
:1052F000601C1154204600F0E7FC0346204600F0F5
:10530000E3FC00EB400049490B54204600F0DCFC74
:105310003C4903220A5471E01CE0204600F0D4FC12
:105320003849085C032869D13F48005D002865D1F1
:105330003D49601C085C002860D1204600F0C4FC98
:10534000304900220A54204600F0BEFC3C490022AD
:105350000A5453E0204600F0B7FC2A49085C0128B3
:1053600034D1204600F0B0FC264902220A5404F150
:105370000900C1B200EB4000294A1154324904F13E
:10538000090031F8101000EB40001044A0F80110A3
:105390000121254A04F109001154204600F094FC33
:1053A0000346204600F090FC00EB40001F490B54E0
:1053B000204600F089FC00EB40001149085C00EB3E
:1053C00040001A4908440321417017E0204600F0CC
:1053D0007BFC0C49085C022810D1134904F1090038
:1053E000085C58B9204600F06FFC064900220A54B8
:1053F000204600F069FC124900220A5410BD00004A
:10540000A115002008000020414141414141414196
:105410004141414141414141414141610000000060
:1054200061150020E82A00203C020020AD15002074
:10543000424242424242424242424242424242008E
:1054400004000020F1140020C82A002010B54848AC
:105450000078012845D146484078012820D145A14F
:105460004B48FBF7B5F84A4803F05EFB4948008813
:105470003F49488047484088888046488088C8809F
:105480004448C08808814348008948814148408990
:10549000888140488089C8813E48C089088265E08B
:1054A0003DA13B48FBF794F8394803F03DFB4248E7
:1054B00000882F4948804048408888803E4880883E
:1054C000C8803D48C08808813B48008948813A48E7
:1054D0004089888138488089C8813748C0890882D6
:1054E00044E023484078012820D134A12848FBF724
:1054F0006FF8274803F018FB1D48408825490880AD
:105500001B48808848801A48C088888018480089CD
:10551000C880174840890881154880894881144807
:10552000C08988811248008AC8811FE02BA11848D1
:10553000FBF74EF8164803F0F7FA0D4840881E496D
:1055400008800B48808848800948C08888800848BF
:105550000089C880064840890881054880894881BB
:105560000348C08988810248008AC88110BD0000B4
:10557000B91500202063616C69622070726F6365E9
:105580007373207265616420636C616D700A0D0035
:10559000EF1D0020E82A00202063616C6962207002
:1055A000726F6365737320726561642072656C65E8
:1055B0006173650A0D000000C82A00202063616C39
:1055C00069622070726F63657373207772697465A6
:1055D00020636C616D700A0D000000002063616C37
:1055E00069622070726F6365737320777269746586
:1055F0002072656C656173650A0D000032480078A1
:1056000000EB4000314908444078032810D12E486F
:105610000078092101EB40002D49085C002850D09A
:10562000294800782B49085C00284AD0042070479C
:105630002548007800EB40002449084440780128C0
:105640000ED121480078082101EB40002049085C78
:10565000A0B31D4800781F49085C78B30420E6E732
:105660001948007800EB40001849084440780228A7
:105670000ED115480078092101EB40001449085C5F
:10568000E0B1114800781349085CB8B10420CEE7B6
:105690000D48007800EB40000C490844407804288D
:1056A0000DD1094800780A4911F8100030B10648B8
:1056B00000780849085C08B10420B8E701E003203D
:1056C000B5E70120B3E700003E000020AD15002043
:1056D0003C020020040000200146082905D00A29C8
:1056E00003D00C2901D00E2901D1012070470220DE
:1056F000FCE7000001461C48407D012808D129B183
:10570000012903D0082901D0092901D102207047BD
:105710001548807D012809D1022905D0032903D02D
:105720000A2901D00B2901D10220F0E70E48C07DE3
:10573000012809D1042905D0052903D00C2901D05D
:105740000D2901D10220E2E70748007E012809D196
:10575000062905D0072903D00E2901D00F2901D130
:105760000220D4E70120D2E76828002057A003F0E8
:10577000DBF94FF00008052637467801FAF7A7FE57
:10578000814600240BE040F24C40574921F81400B8
:1057900040F23A70554921F81400601CC4B2082C3C
:1057A000F1DB082416E040F294704F4921F8140010
:1057B00040F224404D4921F814004FF4E1614A4A77
:1057C000601C22F8101040F22441484A22F81010C0
:1057D000A01CC4B2102CE6DB002045490870002450
:1057E0000AE0FCF753F9434941F8240000204249FC
:1057F00001F80800601CC4B2102CF2DB00203F4905
:10580000087001203A490870002413E0002508E0E0
:10581000002107FB04F009EB400020F81510681C7C
:10582000C5B2B542F4DB40F2EC40354921F8140032
:10583000601CC4B2102CE9DB00BF01F0E9FA4FF0A4
:10584000000A3EE0002429E02E4830F8141007FB3F
:1058500004F009EB400020F8181000202A4921F834
:10586000140000250EE007FB04F009EB400030F8BF
:105870001500254931F814100844234921F8140073
:10588000681CC5B2B542EEDB1F4830F8140090FB2F
:10589000F6F01D4921F81400601CC4B2102CD3DBB3
:1058A00003F05CFB022001F089F908F1010000F02F
:1058B000FF08B04501DB4FF000080AF1010000F0DD
:1058C000FF0ABAF10A0FB8DABCE7000020636F6E76
:1058D00074726F6C5F6D6F746F725F546872656124
:1058E00064200A0D00000000C82A0020E82A0020D9
:1058F000020000205C0200203C0200200300002087
:105900000C0000208C0100206C01002010B57348B1
:10591000007801287ED17248007800287BD10824C5
:1059200038E02046FFF7E6FE022831D06D4830F817
:105930001410204600F0E8F80121204600F0A8FFEE
:1059400004EB440068490C54C4EBC40067490C5490
:105950000020C4EBC401654A11444870614830F826
:10596000140004EB4401604A1144A1F80100C4EBA7
:10597000C4015E4A1144A1F803005D4830F81400E8
:10598000C4EBC4011144A1F8050000205949085591
:10599000601CC4B2102CC4DB40F2DC5001F00EF9E4
:1059A00000243BE02046FFF7A5FE022831D04D48F9
:1059B00030F81410204600F0A7F80121204600F02E
:1059C00067FF04EB440048490C54C4EBC40047494A
:1059D0000C540020C4EBC401444A114448704148AF
:1059E00030F8140004EB44013F4A1144A1F80100CF
:1059F000C4EBC4013D4A1144A1F803003C4830F80F
:105A00001400C4EBC4011144A1F805000020394979
:105A1000085501E02EE01FE0601CC4B2082CC1DB79
:105A20004FF47A7001F0CAF8002412E02046FFF724
:105A300061FE02280BD00320C4EBC4012B4A1144A1
:105A40004870082C03DA0021204600F021FF601C7A
:105A5000C4B2102CEADB04E000F060FA0020204918
:105A6000087000201D49087023490870487088702C
:105A7000C87031E02148007870BB002419E01F484D
:105A8000407850B9174830F81410204600F03CF820
:105A90000121204600F0FCFE09E0194830F81410FE
:105AA000204600F031F80121204600F0F1FE601C94
:105AB000C4B2082CE3DB4FF4FA6001F07FF8002455
:105AC00005E00021204600F0E3FE601CC4B2082C73
:105AD000F7DB01200B49087010BD00000100002019
